:100000000C94F0000C9418010C9418010C94180135
:100010000C9418010C9418010C9418010C941801FC
:100020000C9418010C9418010C9418010C941801EC
:100030000C9418010C9418010C9418010C941801DC
:100040000C94E9090C9418010C946E0A0C94480A5B
:100050000C9418010C9418010C9418010C941801BC
:100060000C94300D0C94180100407A10F35A00A043
:10007000724E18090010A5D4E80000E87648170071
:1000800000E40B54020000CA9A3B000000E1F505B1
:10009000000080969800000040420F000000A086FB
:1000A00001000000102700000000E803000000002D
:1000B0006400000000000A000000000001000000D1
:1000C00000002C76D888DC674F0823DFC1DFAE59EB
:1000D000E1B1B796E5E3E453C63AE651997696E87E
:1000E000E6C28426EB898C9B62ED407C6FFCEFBC02
:1000F0009C9F40F2BAA56FA5F490055A2AF75C932D
:100100006B6CF9676DC11BFCE0E40D47FEF520E662
:10011000B500D0ED902E0300943577050080841E45
:10012000080000204E0A000000C80C333333330FA0
:10013000986E12831141EF8D2114893BE65516CF3D
:10014000FEE6DB18D1844B381BF77C1D901DA4BB49
:10015000E424203284725E228100C9F124ECA1E5FE
:100160003D27005EBCE2613FDD83C29C7E20A3FD93
:100170001F41009D23BE46DB65F88C11AF32CA5784
:10018000E9740000000800020100000304070000F9
:1001900000000000000000000000250028002B00E7
:1001A00000000000240027002A00000000002300B7
:1001B00026002900040404040404040402020202C8
:1001C000020203030303030301020408102040801A
:1001D0000102040810200102040810204E115E0ED6
:1001E00011241FBECFEFD8E0DEBFCDBF12E0A0E0EC
:1001F000B1E0EEE3F6E302C005900D92AA33B10739
:10020000D9F724E0AAE3B2E001C01D92AB34B207F3
:10021000E1F710E0CFEED0E004C02197FE010E948C
:100220004B15CE3ED107C9F70E94660E0C94121BE7
:100230000C940000FC01918D228D892F90E0805C50
:100240009F4F821B91098F739927089580E090E05A
:10025000892B29F00E94D30881110C940000089585
:10026000089580E090E008958F929F92AF92BF92A0
:10027000CF92DF92EF92FF920F931F93CF93DF9372
:10028000CDB7DEB728970FB6F894DEBF0FBECDBF4F
:100290007C0140E050E020E030E0F7010281138172
:1002A00040175107E4F480818E3008F08E5087703B
:1002B000806480937C0080917A00806480937A00CF
:1002C00080917A0086FDFCCF809178006091790062
:1002D00090E0962B280F391F4F5F5F4FDECFB9019B
:1002E00080E090E00E9430164B015C01B801110FD4
:1002F000880B990B0E9432169B01AC01C501B40119
:100300000E94BE1520E030E040EA50E40E94BE1694
:1003100020E030E040E85AE30E94BE16162FC72EB8
:10032000D82E092FF70124813581468157810E94FB
:10033000BE16F70120853185428553850E945215EE
:10034000E62F272F412F5C2D6D2D702F49835A8367
:100350006B837C834E2F522FBC014D835E836F8352
:100360007887212F3A814B815C816E2F7E818F812E
:10037000988528960FB6F894DEBF0FBECDBFDF91EB
:10038000CF911F910F91FF90EF90DF90CF90BF9092
:10039000AF909F908F900895CF93DF93CDB7DEB746
:1003A00064970FB6F894DEBF0FBECDBF1092D8038E
:1003B0008091D9036091DA03811102C081E068273E
:1003C0008091D6030E9456090E94DD09AB01BC0151
:1003D00040933A0250933B0260933C0270933D027B
:1003E000CE0101960E94620B60E971E085EE92E019
:1003F0000E94330ACE0101960E944F0B83E392E0E4
:1004000090939E0380939D0380E09DEDADE6B0E068
:100410008093850390938603A0938703B09388030A
:100420008091850390918603A0918703B091880302
:100430008093890390938A03A0938B03B0938C03DA
:100440000E94DD0960938D0370938E0380938F0368
:100450009093900364960FB6F894DEBF0FBECDBFA5
:10046000DF91CF910895CF93DF93CDB7DEB7649737
:100470000FB6F894DEBF0FBECDBF61E06093D80326
:100480008091D903882321F08091DA03682702C084
:100490006091DA038091D6030E9456090E94DD091B
:1004A000AB01BC0140933A0250933B0260933C0283
:1004B00070933D02CE0101960E94620B6EEA71E0DC
:1004C00085EE92E00E94330ACE0101960E944F0B06
:1004D0008CEC91E090939E0380939D0380EA9BEBCC
:1004E000ADE0B0E08093850390938603A0938703EB
:1004F000B09388038091850390918603A091870330
:10050000B09188038093890390938A03A0938B030F
:10051000B0938C030E94DD0960938D0370938E036A
:1005200080938F039093900364960FB6F894DEBF88
:100530000FBECDBFDF91CF910895FC01848DDF0107
:10054000A80FB11DA35ABF4F2C91848D90E0019646
:100550008F739927848FA689B7892C93A089B18935
:100560008C91837080648C93938D848D981306C0D6
:100570000288F389E02D80818F7D80830895CF9359
:10058000FC01C48121E020935F02C0933E021092DF
:100590006102109260028485682B89ED92E00E94CE
:1005A000220890916002913208F045C08091B30218
:1005B0008111FCCF82E08093B30281E08093B50289
:1005C0008FEF8093B2021092D7029093D602AFE3DE
:1005D000B2E0E6EBF2E080E0981721F02D91219354
:1005E0008F5FFACF1092D8028091D802CC0FC82B1F
:1005F000C093D8028091B402813061F41092B402A9
:100600008091D8028093BB008091BC0083FDF8CF1D
:1006100085EC01C085EE8093BC008091B3028230EE
:10062000E1F38091B2028F3F31F08091B2028032CB
:1006300011F08091B2021092610210926002109249
:100640005F02CF9108950F931F93CF938C01C62F14
:100650000E94BF026C2F6460C8010E94BF026C2F11
:100660006B7FC8010E94BF0283EC90E00197F1F715
:10067000CF911F910F9108950F931F93CF93DF9305
:100680008C01C62FD42F607F642B0E94230380E14E
:10069000C89FB00111246D2BC801DF91CF911F912C
:1006A0000F910C94230341E00E943C0381E090E011
:1006B0000895DC0180E0615098F02D91982F9227E9
:1006C000E92FEF70F0E0EE59FE4F249192959F7064
:1006D000E92FF0E0EE58FE4FE491822F8E27EBCF0A
:1006E0000895FC0190810180F281E02DF8948181D0
:1006F000892B81832281892F809528232283A7E05B
:10070000B0E01197F1F7218182238183A3E2B0E069
:100710001197F1F780817894EFECF0E03197F1F7E1
:10072000982381E009F480E00895FC019081018024
:10073000F281E02D892F809560FF12C0F89422810C
:10074000822382838181892B8183A3E2B0E0119788
:10075000F1F78281982B9283789487ED90E011C015
:10076000F8942281822382838181892B8183AFEF58
:10077000B0E01197F1F78281982B928378948FE003
:1007800090E00197F1F70895DF92EF92FF920F93B7
:100790001F93CF93DF93EC01D62EE42E08E010E0F8
:1007A000FF24F39461E08D2D8F2109F460E0CE01E8
:1007B0000E949503FF0C01501109A1F7E11010C030
:1007C000F894E981FA8191818881809589238183D8
:1007D000E981FA8192818881809589238283789446
:1007E000DF91CF911F910F91FF90EF90DF900895CF
:1007F000EF92FF920F931F93CF93DF938C017B01B6
:1008000040E065E50E94C403E70188E0E80EF11CC2
:10081000699140E0C8010E94C403CE15DF05C1F70D
:10082000DF91CF911F910F91FF90EF900895DC0120
:100830002C911196ED91FC911297F8948181922F51
:1008400090958923818378948DE743E050E081502F
:1008500021F1DA011197F1F730813223C1F3F894D5
:100860008281892382838181822B81837894ABE783
:10087000B7E01197F1F7F89481819823918383E190
:1008800091E00197F1F78081282381E009F080E071
:100890007894E3E6F6E03197F1F708954F925F928E
:1008A0006F927F929F92AF92BF92CF92DF92EF9220
:1008B000FF920F931F93CF93DF93CDB7DEB7C6554B
:1008C000D1090FB6F894DEBF0FBECDBF87EE93E01F
:1008D0000E9434012C966FAF2C972D967FAF2D97E9
:1008E0002E968FAF2E972F969FAF2F978BED93E07D
:1008F0000E94340164966FAF649765967FAF6597E9
:1009000066968FAF669767969FAF67978091FC0357
:100910009091FD030E94170440E06CEC8091FC0371
:100920009091FD030E94C4034091F30364E480911D
:10093000FC039091FD030E94C4038091F703882378
:1009400009F44BC0E091F6038091F8038823F1F09D
:100950008091F30381111AC00E94DD096B017C01B3
:100960008091FC039091FD030E9471038130A9F1F5
:100970000E94DD09DC01CB018C199D09AE09BF097C
:100980008E3E9240A105B10558F327C0E950E330EF
:1009900040F4F0E0EE0FFF1FEA5FFE4F808191818F
:1009A00002C08EEE92E06C01990FEE08FF08809174
:1009B000F403882329F060E08091F5030E94560932
:1009C000C701B6010E94A3098091F403882329F08E
:1009D00061E08091F5030E945609E091FC03F091DB
:1009E000FD03138615861486DF011B96CF0103963F
:1009F0001E92A817B907E1F76E0135E1C30ED11CAD
:100A0000B601CF010E94AE0CAE014F5F5F4F7A017D
:100A1000882341F067E0C6010E9459039C8D891725
:100A200009F4E1C0412C512C8EEF682E82EC782E17
:100A30000E942B0C5E018DE3A80EB11C2F966CADAD
:100A40007DAD8EAD9FAD2F97850121E044E00E94E2
:100A50005912BF92AF928DEC91E09F938F931F92AA
:100A600094E1992E9F92FF92EF920E945118B70144
:100A700088E194E00E94330A67966CAD7DAD8EAD3F
:100A80009FAD679721E045E00E945912BF92AF9257
:100A900087ED91E09F938F931F929F92FF92EF9229
:100AA0000E945118B70188E194E00E94330A81E066
:100AB0000E94FD0B21E045E0C301B2010E945912E2
:100AC000BF92AF928FED91E09F938F931F929F9271
:100AD000FF92EF920E945118B70188E194E00E94C2
:100AE000330A82E00E94FD0B0E94DD09AB01BC01CC
:100AF000C6010E94620B0E94DD0940903A025090AC
:100B00003B0260903C0270903D029B01AC012419B5
:100B100035094609570929013A01CA01B90120E6F8
:100B20003AEE40E050E00E94F614CA01B9012CE30D
:100B300030E040E050E00E94F6147F936F93C301D1
:100B4000B20120E83EEE46E350E00E94F614CA01EE
:100B5000B90128E130E040E050E00E94F6147F93B4
:100B60006F9384E392E09F938F931F929F925E0115
:100B700039E2A30EB11CBF92AF920E9451180FB67A
:100B8000F894DEBF0FBECDBFBF92AF92DF92CF927F
:100B900086EE91E09F938F931F929F92FF92EF9228
:100BA0000E945118B70188E194E00E94330A0FB601
:100BB000F894DEBF0FBECDBFCA5ADF4F0FB6F89410
:100BC000DEBF0FBECDBFDF91CF911F910F91FF9080
:100BD000EF90DF90CF90BF90AF909F907F906F90FD
:100BE0005F904F900895B701C6010E943D0C882385
:100BF00009F443C02A8130E0C901982F8827990F52
:100C0000990F990F698158E0659FB00111249C01EB
:100C1000262B372B8D898031D9F468856623C1F066
:100C200070E08F81AB01481B5109CA019695982F3E
:100C30008827979587950E94E21460527109207F5A
:100C400053E0220F331F5A95E1F7620F731F01C063
:100C5000B901613854EE75070CF4E4CE072E000C90
:100C6000880B990B0E94321620E030E040E05CE3F4
:100C70000E94BE162B013C01DBCE60E874EEE9CF8A
:100C80000F931F93CF93DF93DC015F96ED91FC915F
:100C90009097309781F0EC01ADA1BEA114960D9113
:100CA0001C91159715969C938E9314970995EDA119
:100CB000FEA115830483DF91CF911F910F910895B9
:100CC000CF93DF93EC0180E591E0998388839A814B
:100CD0008A818E7F8A838A818D7F8A8390FF03C079
:100CE000CE010E9440068DA19EA1009769F11EA22F
:100CF0001DA2E9A1FAA1ABA1BCA1309799F410976C
:100D000049F4DC0111961C921E9213961C921E92BD
:100D100012971AC092961C921E929197FC01B18371
:100D2000A08312C0109741F414A213A2DC01139601
:100D3000FC93EE93129708C0B4A3A3A3ABA1BCA1EC
:100D40009296FC93EE939197DF91CF910895CF9374
:100D5000DF93EC010E946006CE01DF91CF910C94ED
:100D6000C3172F923F924F925F926F927F928F9212
:100D70009F92AF92BF92CF92DF92EF92FF920F932A
:100D80001F93CF93DF93CDB7DEB762970FB6F8947A
:100D9000DEBF0FBECDBF7A8769871C018C01A12CF5
:100DA000B12CC12CD12C76012601370129853A8539
:100DB000A216B306E1F0F80120813181428153810E
:100DC000C301B2010E9452152B013C01F80124819C
:100DD000358146815781C701B6010E9452156B01CA
:100DE0007C01FFEFAF1ABF0A085F1F4FDFCF2985D5
:100DF0003A85B90180E090E00E9430164B015C0119
:100E00009B01AC01C301B2010E94BE156B877C87B8
:100E10008D879E87A5019401C701B6010E94BE156A
:100E20006F87788B898B9A8B00E010E0812C912C56
:100E300054017501640189859A8508171907C1F164
:100E40002B853C854D855E85F101608171818281B4
:100E500093810E9451152B013C012F8538894989C6
:100E60005A89F10164817581868197810E945115AB
:100E7000A30192010E94BE169B01AC01C701B601FD
:100E80000E9452156B017C01A3019201C301B201C2
:100E90000E94BE169B01AC01C501B4010E9452150F
:100EA0004B015C010F5F1F4FF8E02F0E311CC3CFC9
:100EB000A5019401C701B6010E94BE15FB01162FC2
:100EC000AB01BC0149835A836B837C839F01AC01D6
:100ED0006B857C858D859E850E94BE169B01AC012D
:100EE0006F85788989899A890E945115E62F462F46
:100EF000572FBC014D835E836F837887212F3A8102
:100F00004B815C816E2F7E818F81988562960FB6B2
:100F1000F894DEBF0FBECDBFDF91CF911F910F912F
:100F2000FF90EF90DF90CF90BF90AF909F908F9009
:100F30007F906F905F904F903F902F9008954091D9
:100F4000AF02262F30E0240F311D21323105DCF4B1
:100F50002091B3022430C9F4FC0180E090E08617B0
:100F600058F43091AF022191DC01A357BD4FA30F7C
:100F7000B11D2C930196F3CF8091AF02680F60935F
:100F8000AF0280E0089581E0089582E00895089519
:100F900008950895E0918C0280918B02E81730F457
:100FA000F0E0E559FD4F808190E008958FEF9FEFCD
:100FB000089590918C0280918B02981750F4E92F3C
:100FC000F0E0E559FD4F208130E09F5F90938C0267
:100FD00002C02FEF3FEFC901089580918B0290E08E
:100FE00020918C02821B91090895CF92DF92EF929B
:100FF000FF920F931F93CF93DF937C01CB018A0164
:1010000020915F02222389F0EB016B01C40ED51EF3
:10101000CC15DD0569F06991D701ED91FC91019046
:10102000F081E02DC7010995F3CF642F0E949F073F
:10103000C801DF91CF911F910F91FF90EF90DF904A
:10104000CF900895CF93DF931F92CDB7DEB769831A
:1010500020915F022223D1F020916002203240F0E3
:1010600021E030E0FC013383228380E090E015C072
:1010700080916102E82FF0E0E15CFD4F998190835F
:101080008F5F809361028093600205C061E0CE01B2
:1010900001960E949F0781E090E00F90DF91CF9131
:1010A00008953FB7F8948091670290916802A091EB
:1010B0006902B0916A0226B5A89B05C02F3F19F0BE
:1010C0000196A11DB11D3FBFBA2FA92F982F8827C8
:1010D000820F911DA11DB11DBC01CD0142E0660F23
:1010E000771F881F991F4A95D1F70895CF92DF92F5
:1010F000EF92FF920F931F93CF93DF936C017A01CE
:101100008B01C0E0D0E0CE15DF0581F0D8016D91F4
:101110008D01D601ED91FC910190F081E02DC60189
:101120000995892B11F02196EECF7E01C701DF9141
:10113000CF911F910F91FF90EF90DF90CF90089586
:10114000FC01538D448D252F30E0842F90E0821BCD
:10115000930B541710F0CF96089501970895FC0152
:10116000918D828D981761F0828DDF01A80FB11DDE
:101170005D968C91928D9F5F9F73928F90E0089502
:101180008FEF9FEF0895FC01918D828D981731F0BC
:10119000828DE80FF11D858D90E008958FEF9FEF10
:1011A00008950E944C1885EE92E00E941A0121E0F9
:1011B000892B09F420E0822F0895EF92FF920F937C
:1011C0001F93CF93DF93EC0181E0888F9B8D8C8DF3
:1011D000981305C0E889F989808185FD26C0F62E1F
:1011E0000B8D10E00F5F1F4F0F731127E02E8C8DBA
:1011F000E8120CC00FB607FCFACFE889F9898081A4
:1012000085FFF5CFCE010E949D02F1CF8B8DFE01AF
:10121000E80FF11DE35AFF4FF0829FB7F8940B8F50
:10122000EA89FB89808180620AC09FB7F894EE89C1
:10123000FF896083E889F989808183708064808375
:101240009FBF81E090E0DF91CF911F910F91FF90C0
:10125000EF900895CF93DF93EC01888D8823C9F038
:10126000EA89FB89808185FD05C0A889B9898C91AF
:1012700086FD0FC00FB607FCF5CF808185FFF2CF4A
:10128000A889B9898C9185FFEDCFCE010E949D027E
:10129000E7CFDF91CF91089585ED8093BC008091D9
:1012A000BC0084FDFCCF1092B302089590E0FC01D5
:1012B000EE57FE4F2491FC01E853FE4F3491FC01A0
:1012C000EC54FE4FE491EE2309F43CC0222339F1A3
:1012D000233091F038F42130A9F0223001F584B5A3
:1012E0008F7D12C0273091F02830A1F02430B9F45E
:1012F000809180008F7D03C0809180008F778093E4
:1013000080000DC084B58F7784BD09C08091B00086
:101310008F7703C08091B0008F7D8093B000F0E0A4
:10132000EE0FFF1FEA56FE4FA591B4919FB7F894B8
:10133000611104C08C913095382302C0EC913E2B92
:101340003C939FBF08958F929F92AF92BF92CF928E
:10135000DF92EF92FF926B017C010E9451084B01DA
:101360005C01C114D104E104F104F1F00E945108C0
:10137000DC01CB0188199909AA09BB09883E934071
:10138000A105B10570F321E0C21AD108E108F10806
:1013900088EE880E83E0981EA11CB11CC114D104F4
:1013A000E104F10419F7DDCFFF90EF90DF90CF90CB
:1013B000BF90AF909F908F9008952FB7F894609151
:1013C00063027091640280916502909166022FBF62
:1013D00008951F920F920FB60F9211242F933F93EF
:1013E0008F939F93AF93BF93809163029091640218
:1013F000A0916502B09166023091620223E0230F52
:101400002D3720F40196A11DB11D05C026E8230F3C
:101410000296A11DB11D20936202809363029093F6
:101420006402A0936502B093660280916702909176
:101430006802A0916902B0916A020196A11DB11DD6
:101440008093670290936802A0936902B0936A0246
:10145000BF91AF919F918F913F912F910F900FBEB0
:101460000F901F9018956115710579F0FB0101909F
:101470000020E9F73197AF01461B570BDC01ED91D6
:10148000FC910280F381E02D099480E090E00895C2
:101490001F920F920FB60F9211242F933F934F93E9
:1014A0005F936F937F938F939F93AF93BF93EF93CC
:1014B000FF9385EE92E00E949D02FF91EF91BF9114
:1014C000AF919F918F917F916F915F914F913F91DC
:1014D0002F910F900FBE0F901F9018951F920F9293
:1014E0000FB60F9211242F938F939F93EF93FF9337
:1014F000E091F502F091F6028081E091FB02F0911B
:10150000FC0282FD12C090818091FE028F5F8F737A
:101510002091FF02821751F0E091FE02F0E0EB51C2
:10152000FD4F958F8093FE0201C08081FF91EF9166
:101530009F918F912F910F900FBE0F901F90189534
:101540000F931F93CF93DF93EC0180E591E0998394
:1015500088838A818E7F8A838A818D7F8A831B8696
:101560001C861D861E861F82188619861A861B8277
:101570001C821D821E821AA219A21CA21BA21EA2DC
:101580001DA21F8A188E198E1A8E3C8F2B8F1E8ECD
:101590001D8E18A21F8E4B835C836D837E838B818F
:1015A0009C81AD81BE818F839887A987BA870E946D
:1015B000DD096B877C878D879E878FEF9FEFDC012E
:1015C0008F87988BA98BBA8B8B8B9C8BAD8BBE8BAB
:1015D0008DA19EA1892BF9F480ED93E09EA38DA3AC
:1015E0008091D0039091D103892B39F4D093D1030A
:1015F000C093D0031AA219A208C0E091D203F091BF
:10160000D303FAA3E9A3D4A3C3A31CA21BA2D09320
:10161000D303C093D203ADA1BEA11097D9F11F8A05
:10162000188E198E1A8EED8DFE8D309779F18A8184
:1016300081FD2CC014960D911C9115971596DC9385
:10164000CE9314978A8182608A8309959A8180FB60
:1016500090F99A838A818D7F8A83EDA1FEA11583FB
:1016600004830E94DD090B811C812D813E810F8343
:10167000188729873A87DC01CB01801B910BA20BCD
:10168000B30B8B879C87AD87BE8704C08A8181603E
:101690008A83E7CFDF91CF911F910F910895CF9368
:1016A000DF93BC0185EE92E00E94330AEC016AE20E
:1016B00072E085EE92E00E94330A8C0F9D1FDF914D
:1016C000CF9108954F925F926F927F928F929F92E7
:1016D000AF92BF92CF92DF92EF92FF920F931F9340
:1016E000CF93DF93EC016A017B01CB01BA0128EEB5
:1016F00033E040E050E00E94F6148CE3482E512C79
:10170000612C712CCA01B901A30192010E94F61447
:10171000962E872EC701B60120E63AEE40E050E053
:101720000E94F614CA01B901A30192010E94F614A5
:10173000B62EA72EC701B60120E83EEE46E350E0E4
:101740000E94F614CA01B90128E130E040E050E0FF
:101750000E94F614162F072FC701B60120E03CE5C2
:1017600046E255E00E94F61421153105D1F48F921E
:101770009F92AF92BF920F931F9381E392E09F934A
:101780008F931F9284E18F93DF93CF930E94511820
:101790008DB79EB70C960FB6F8949EBF0FBE8DBF47
:1017A0001BC08F929F92AF92BF920F931F933F9354
:1017B0002F938DE292E09F938F931F9284E18F93FA
:1017C000DF93CF930E9451188DB79EB70E960FB638
:1017D000F8949EBF0FBE8DBFDF91CF911F910F91E7
:1017E000FF90EF90DF90CF90BF90AF909F908F9041
:1017F0007F906F905F904F900895CF93DF93CDB718
:10180000DEB728970FB6F894DEBF0FBECDBF98E0C5
:10181000E4E4F1E0DE01119601900D929A95E1F772
:1018200090912004981710F48FEF890FFE013196E4
:10183000E80FF11DE80FF11D6081606840E088E16C
:1018400094E028960FB6F894DEBF0FBECDBFDF91AF
:10185000CF910C943C0340E061E088E194E00E9469
:101860003C038BE39FE10197F1F7809121048823EA
:1018700019F080E00C94FD0B08956F927F928F9287
:101880009F92AF92BF92CF92DF92EF92FF920F930F
:101890001F93CF93DF938C01EB018091FC03909118
:1018A000FD030E941704882309F447C0B801809102
:1018B000FC039091FD030E94F80340E06EEB8091E1
:1018C000FC039091FD030E94C4038E016E0189E028
:1018D000C80ED11C7E01A090FC03B090FD0388E0EF
:1018E000882E912C712C66246394C5010E9471038B
:1018F00081117628660CE1E08E1A9108B1F7F701A4
:1019000071927F01CE16DF0631F78091FC03909132
:10191000FD030E941704813081F4F80181918F0149
:10192000811104C0EC15FD05C1F707C068E0CE01C8
:101930000E94590391E02885281390E0892FDF91B8
:10194000CF911F910F91FF90EF90DF90CF90BF90BC
:10195000AF909F908F907F906F900895BF92CF929D
:10196000DF92EF92FF920F931F93CF93DF93EC01DF
:101970006B018D85811105C0CE010E941704811174
:1019800005C01B861D861C8680E060C040E060EFBD
:10199000CE010E94C40301E0E12CB12C11E0CE0184
:1019A0000E947103F82ECE010E94710391E0F9129A
:1019B00003C08130B1F434C02E2D30E0F8121BC0CA
:1019C0008B85181738F4FE01E20FF31F8381802303
:1019D00041F402C0811729F0F12C193058F41C870A
:1019E00009C0FE01EE0DF11D8381802B8383FF244E
:1019F000F39409C0B12EFE01E20FF31F9381802FF3
:101A00008095892383836F2DCE010E9495031F5FEC
:101A1000000F11F4E39401E087E08E1508F0BFCFCA
:101A2000113408F4AECFBB86B11002C081E08D87BF
:101A30008B81882309F4A5CFDE011396F6012B963E
:101A40008D918193CA17DB07D9F781E0DF91CF91A0
:101A50001F910F91FF90EF90DF90CF90BF9008956E
:101A60001F920F920FB60F9211242F933F934F9313
:101A70005F936F937F938F939F93AF93BF93EF93F6
:101A8000FF938091B900887F803609F49CC068F587
:101A9000883209F45BC090F4803109F454C038F402
:101AA000882309F4F6C0883009F44DC0F6C08831A7
:101AB00009F44CC0803209F45DC0EFC0803409F4F1
:101AC00068C048F4803309F455C0883309F0E5C094
:101AD0008093B202D8C0803509F44FC0883509F42C
:101AE0005DC0883409F0D9C0D6C0883909F4C7C0B0
:101AF000A8F4883709F467C038F4883609F463C05D
:101B0000803709F460C0C9C0883809F4B8C080398A
:101B100009F45FC0803809F0C0C05BC0803B09F4A5
:101B200086C038F4803A09F466C0883A09F47FC068
:101B3000B4C0803C09F4A7C0883C09F4A4C0883B29
:101B400009F48AC0AAC08091D80210C09091D7022F
:101B50008091D602981770F5E091D70281E08E0F40
:101B60008093D702F0E0EA54FD4F80818093BB0060
:101B700085EC86C08093B2028EC0E091D70281E0EE
:101B80008E0F8093D7028091BB00F0E0EA54FD4FA6
:101B900080839091D7028091D6026EC0E091D702E7
:101BA00081E08E0F8093D7028091BB00F0E0EA5471
:101BB000FD4F80838091B50281116DC081E08093DB
:101BC000B40284EA61C083E08093B30210924604B9
:101BD000CFCF80914604803208F051C0E091460496
:101BE00081E08E0F809346048091BB00F0E0EA5DB7
:101BF000FB4F8083BDCF85EC8093BC001092B30275
:101C000080914604803230F4E0914604F0E0EA5DD1
:101C1000FB4F10826091460470E0E091B002F091B9
:101C2000B10286E294E009951092460436C084E041
:101C30008093B302109225041092AF02E091AD029E
:101C4000F091AE0209958091AF02811105C081E04B
:101C50008093AF0210928D02E091250481E08E0FF7
:101C600080932504F0E0E357FD4F80818093BB0013
:101C7000909125048091AF02981708F479CF85E8F8
:101C80008093BC000AC085EC8093BC001092B30224
:101C900004C01092B2020E944C09FF91EF91BF91D3
:101CA000AF919F918F917F916F915F914F913F91F4
:101CB0002F910F900FBE0F901F90189582E893E020
:101CC0000E94600689EA93E00C946006CF93DF934C
:101CD000CDB7DEB7C956D1090FB6F894DEBF0FBE37
:101CE000CDBF789484B5826084BD84B5816084BDA5
:101CF00085B5826085BD85B5816085BD80916E00AA
:101D0000816080936E0010928100809181008260DA
:101D10008093810080918100816080938100809117
:101D200080008160809380008091B1008460809306
:101D3000B1008091B00081608093B00080917A0002
:101D4000846080937A0080917A00826080937A0028
:101D500080917A00816080937A0080917A00806817
:101D600080937A001092C100E091F502F091F602A2
:101D700082E08083E091F102F091F2021082E09122
:101D8000F302F091F4028FEC80831092FD02E09157
:101D9000F902F091FA0286E08083E091F702F09177
:101DA000F802808180618083E091F702F091F8026F
:101DB000808188608083E091F702F091F802808151
:101DC00080688083E091F702F091F80280818F7D36
:101DD000808382EF91E00E944F0B8EEF91E00E9492
:101DE0004F0B80E2ECE0F1E0DE01119601900D92E4
:101DF0008A95E1F764E070E0CE0101960E94B10699
:101E0000A3962FAFA397A4963FAFA497A5964FAFE5
:101E1000A597A6965FAFA697A7966FAFA797A89628
:101E20007FAFA897A9968FAFA997AA969FAFAA97B9
:101E300088E0FE01EE59FF4FDE01AE5BBF4F01901F
:101E40000D928A95E1F788E0FE01EE5BFF4FABEE65
:101E5000B3E001900D928A95E1F788E1ECE2F1E0C0
:101E6000DE01919601900D928A95E1F763E070E0B2
:101E7000CE0181960E94B1066B962FAF6B976C9640
:101E80003FAF6C976D964FAF6D976E965FAF6E9745
:101E90006F966FAF6F97A0967FAFA097A1968FAF09
:101EA000A197A2969FAFA29788E0FE01E65AFF4F46
:101EB000DE01A65BBF4F01900D928A95E1F788E0A5
:101EC000FE01E65BFF4FAFEDB3E001900D928A9506
:101ED000E1F710928C0210928B0210926102109224
:101EE00060021092B30281E08093B5021092B402B6
:101EF00061E082E10E94560961E083E10E94560997
:101F00008091B9008E7F8093B9008091B9008D7F58
:101F10008093B90088E48093B80085E48093BC0086
:101F200087EC97E09093AE028093AD0288EC97E047
:101F30009093B1028093B00210921D04809123040B
:101F4000823018F098E090931D048093200462E39F
:101F500070E080E090E00E94A3096091240488E191
:101F600094E00E94BF0268EE73E080E090E00E947F
:101F7000A30960E388E194E00E9423030BE416E4E4
:101F8000C8010197F1F760E388E194E00E94230320
:101F9000C8010197F1F760E388E194E00E94230310
:101FA00083E592E00197F1F760E288E194E00E9416
:101FB000230360911D04606240E088E194E00E9488
:101FC0003C0384E080931E0440E06CE088E194E0F0
:101FD0000E943C030E942B0C82E080931F0440E08F
:101FE00066E088E194E00E943C0340E062E088E122
:101FF00094E00E943C038BE39FE10197F1F788E0B6
:102000008093240460E088E194E00E94BF02E091A4
:10201000FC03F091FD03138615861486DF011B96E1
:1020200033961E92EA17FB07E1F71092FA0310921B
:10203000FB0311E0BE016E5A7F4F8091FC0390912B
:10204000FD030E94AE0C882319F167E0CE018E5A81
:102050009F4F0E9459036A969FAD6A978913EACFF2
:102060008091FA038F5F8093FA0363968FAD639735
:10207000883209F4B6C030F4803109F4B2C082323B
:10208000C9F6AFC08B3309F4ACC0823499F6A9C04D
:102090008091D6039091D7039927FC01E853FE4F16
:1020A0002491FC01EC54FE4F8491882399F090E038
:1020B000880F991FFC01E056FE4FA591B491FC01D9
:1020C000EA56FE4F859194918FB7F894EC91E22BEC
:1020D000EC938FBF8091D0039091D1039093D5035F
:1020E0008093D403E091D403F091D503309709F4A1
:1020F00075C003A114A1828180FF6BC08785908980
:10210000A189B289892B8A2B8B2B69F492818281D8
:102110008E7F828382818D7F828390FF5AC0CF0120
:102120000E94400656C00E94DD09E091D403F09160
:10213000D503438054806580768083849484A5840D
:10214000B684C780D084E184F284DC01CB01881995
:102150009909AA09BB098C159D05AE05BF05C8F1F3
:1021600087859089A189B289181619061A061B0657
:102170005CF487859089A189B2890197A109B10989
:102180008787908BA18BB28B8789908DA18DB28D23
:102190000196A11DB11D878B908FA18FB28FC78033
:1021A000D084E184F28483859485A585B6858C0DE1
:1021B0009D1DAE1DBF1D83879487A587B687478267
:1021C000508661867286038CF48DE02D309709F07D
:1021D00009951093D5030093D40384CF0E94260160
:1021E00079CF8091FB038F5F8093FB038091F30392
:1021F000811126C08091FC039091FD030E94170479
:10220000BE016E5A7F4F8091FC039091FD030E94A6
:10221000F80340E064EB8091FC039091FD030E9481
:10222000C4038091FC039091FD030E947103082F69
:102230008091FC039091FD030E941704002359F143
:1022400063968FAD63978031E9F0BE01675C7F4F85
:10225000CE018E5A9F4F0E943D0C882389F08DAD90
:102260008F3361F020F48F3159F489E00CC08F3541
:1022700019F08F3739F004C08BE005C08AE003C045
:1022800080E001C08CE09091F603981708F0D2CE60
:102290008093F603CFCE1093F303D2CFCF93DF9387
:1022A0001092DC021092DB0288EE93E0A0E0B0E036
:1022B0008093DD029093DE02A093DF02B093E002F0
:1022C00028E531E03093DA022093D9021092E80237
:1022D0001092E7028093E9029093EA02A093EB0246
:1022E000B093EC028AE691E09093E6028093E502D7
:1022F00085EC90E09093F2028093F10284EC90E000
:102300009093F4028093F30280EC90E09093F602B5
:102310008093F50281EC90E09093F8028093F702AD
:1023200082EC90E09093FA028093F90286EC90E0C0
:102330009093FC028093FB021092FE021092FF0227
:10234000109200031092010310921B0410921A04C1
:102350008CE791E090931904809318041092210463
:1023600087E280931C0484E18093220484E08093BC
:10237000230410922404EBECF1E02491E7EBF1E06C
:1023800084918823C1F090E0880F991FFC01E056EA
:10239000FE4FC591D491FC01EA56FE4FA591B49130
:1023A0009FB7F8948881E22FE0958E2388838C91E3
:1023B000E823EC939FBFEBECF1E0E491E0930A0497
:1023C000E7EBF1E0E491F0E0EE0FFF1FE655FE4F82
:1023D0008591949190930C0480930B0410921504B2
:1023E0001092170410921604E5E1F4E0129284E0D2
:1023F000ED30F807D9F710920904109208041092F2
:10240000F4038AE094E09093FD038093FC03109220
:10241000FA031092FB031092F30389E08093F60312
:1024200081E08093F7038093F8038093F90320E120
:1024300030E03093E8032093E7032AE030E0309364
:10244000EA032093E90341E150E05093DC03409319
:10245000DB033093DE032093DD0324E030E0309390
:10246000D7032093D6038093D8031092D9031092F8
:10247000D1031092D0031092D3031092D203109282
:10248000D5031092D4032EE434E048EE53E060E02C
:1024900070E089EA93E00E94A00A23E332E040E082
:1024A0005DED6DE670E082E893E0DF91CF910C94F2
:1024B000A00AEF920F931F93CF93DF93E80147FD9C
:1024C00002C034E001C034E1042E000C550B57FF6C
:1024D00003C0519541955109E32E022F242FAE01DF
:1024E0000E947912CE01DF91CF911F910F91EF9051
:1024F0000895A9E0B0E0EFE7F2E10C94B1146A01AD
:10250000122FB02E2BE3201720F0FF24F394F00EAF
:1025100002C02CE3F22E0F2D27E0AE014F5F5F4F7C
:102520000E94D313BC014981842F8970813031F01E
:10253000E1FC06C0E0FE06C090E205C09DE203C0DB
:102540009BE201C090E05E2D507143FF3CC09111B1
:1025500002C083E001C084E0811718F4212F281BFA
:1025600001C020E051110BC0F601822F30E2882318
:1025700019F031938150FBCFC20ED11C20E099237A
:1025800029F0D6019C93F60131966F01C60103969E
:10259000E2FE0AC03EE4D6013C9341E411964C931E
:1025A000119712963C9306C03EE6F601308341E651
:1025B00041833283FC01322F40E2332309F442C0CD
:1025C00041933150FACF42FF44C0911102C083E0E1
:1025D00001C084E0811718F4212F281B01C020E0DE
:1025E00051110BC0F601822F30E2882319F031938C
:1025F0008150FBCFC20ED11C20E0992329F0D601D7
:102600009C93F60131966F01C6010396E2FE0BC062
:1026100039E4D6013C933EE411963C93119736E49D
:1026200012963C9307C039E6F60130833EE63183CB
:1026300036E63283FC01322F40E2332319F0419316
:102640003150FBCFFC01E20FF11D10828EEF9FEFA6
:10265000A6C021E030E0911102C020E030E0161663
:1026600017061CF4FB01319602C0E1E0F0E02E0FEA
:102670003F1FBB2021F0EB2DF0E0319602C0E0E0DF
:10268000F0E02E0F3F1FE12FF0E02E173F071CF464
:10269000121B212F01C020E08E2D887159F4F60104
:1026A000822F30E2882319F031938150FBCFC20E84
:1026B000D11C20E0992329F0D6019C93F601319694
:1026C0006F0151110BC0F601822F90E3882319F09E
:1026D00091938150FBCFC20ED11C20E00F2D060F2D
:1026E0009A81342F307144FF03C0913309F40150B3
:1026F000101624F4093018F008E001C001E0AB0125
:1027000077FF02C040E050E0FB01E41BF50BA1E0C5
:10271000B0E0AC0FBD1FEA0FFB1F8EE2A82E4B01ED
:10272000801A91080B2D10E01195019511094F3F6A
:10273000BFEF5B0721F4D601AC9211966D016417CF
:1027400075072CF08416950614F4818101C080E38E
:10275000415051093196D60111967D01401751071C
:1027600024F0D6018C936701E2CF6417750739F422
:10277000963320F4953319F4311101C081E3F60149
:102780008083F701822F90E2882319F09193815082
:10279000FBCFF701E20FF11D108280E090E0299657
:1027A000ECE00C94CD14283008F027E03327DA0150
:1027B000990F311D87FD916000966105710539F40F
:1027C00032602E5F3D9330E32A95E1F708959F3FF5
:1027D00030F080387105610509F03C5F3C5F3D9346
:1027E000913008F08068911DDF93CF931F930F9372
:1027F000FF92EF92192F987F9695E92F96959695CF
:10280000E90FFF27EE53FF4F99273327EE24FF24CC
:10281000A701E70105900894079428F4360FE71EF6
:10282000F81E491F511D660F771F881F991F0694B8
:10283000A1F70590079428F4E70EF81E491F561FCC
:10284000C11D770F881F991F661F0694A1F7059079
:10285000079428F4F80E491F561FC71FD11D880F73
:10286000991F661F771F0694A1F70590079420F41F
:10287000490F561FC71FD81F990F661F771F881F44
:102880000694A9F784911095177041F0D695C795D5
:1028900057954795F794E7941A95C1F7E8E6F0E065
:1028A00068941590159135916591959105907FE209
:1028B0007395E118F10A430B560BC90BD009C0F709
:1028C000E10CF11E431F561FC91FD01D7EF470334B
:1028D00011F48A95E6CFE894015030F0080F0AF41D
:1028E0000027021708F4202F2395022F7A3328F0AF
:1028F00079E37D932A95E9F710C07D932A9589F6AF
:10290000069497956795379517951794E118F10AEE
:10291000430B560BC90BD00998F023957E91739504
:102920007A3308F070E37C932013B8F77E917061DE
:102930007D9330F0839571E37D9370E32A95E1F701
:102940001124EF90FF900F911F91CF91DF91992764
:1029500087FD909508952F923F924F925F926F92CC
:102960007F928F929F92AF92BF92CF92DF92EF921F
:10297000FF920F931F93CF93DF93CDB7DEB7CA1BA0
:10298000DB0B0FB6F894DEBF0FBECDBF09942A88CB
:10299000398848885F846E847D848C849B84AA8473
:1029A000B984C884DF80EE80FD800C811B81AA8100
:1029B000B981CE0FD11D0FB6F894DEBF0FBECDBFCB
:1029C000ED01089597FB072E16F4009407D077FDCC
:1029D00009D00E94151507FC05D03EF4909581950D
:1029E0009F4F0895709561957F4F0895052E97FB31
:1029F0001EF400940E940D1557FD07D00E94291562
:102A000007FC03D04EF40C940D155095409530956D
:102A100021953F4F4F4F5F4F08959095809570954A
:102A200061957F4F8F4F9F4F0895AA1BBB1B51E1AC
:102A300007C0AA1FBB1FA617B70710F0A61BB70B2E
:102A4000881F991F5A95A9F780959095BC01CD01D3
:102A50000895A1E21A2EAA1BBB1BFD010DC0AA1FDF
:102A6000BB1FEE1FFF1FA217B307E407F50720F0F7
:102A7000A21BB30BE40BF50B661F771F881F991F72
:102A80001A9469F760957095809590959B01AC01BB
:102A9000BD01CF010895EE0FFF1F0590F491E02DC9
:102AA00009945058BB27AA270E9469150C948416D4
:102AB0000E94761638F00E947D1620F039F49F3F70
:102AC00019F426F40C9473160EF4E095E7FB0C94BD
:102AD0006D16E92F0E94951658F3BA17620773070F
:102AE0008407950720F079F4A6F50C94B7160EF438
:102AF000E0950B2EBA2FA02D0B01B90190010C010E
:102B0000CA01A0011124FF27591B99F0593F50F425
:102B1000503E68F11A16F040A22F232F342F44277D
:102B2000585FF3CF469537952795A795F040539575
:102B3000C9F77EF41F16BA0B620B730B840BBAF045
:102B40009150A1F0FF0FBB1F661F771F881FC2F7B0
:102B50000EC0BA0F621F731F841F48F487957795C4
:102B60006795B795F7959E3F08F0B0CF9395880F7E
:102B700008F09927EE0F9795879508950E94D21532
:102B80000C9484160E947D1658F00E94761640F030
:102B900029F45F3F29F00C946D1651110C94B8166E
:102BA0000C9473160E94951668F39923B1F355237C
:102BB00091F3951B550BBB27AA2762177307840750
:102BC00038F09F5F5F4F220F331F441FAA1FA9F3E6
:102BD00035D00E2E3AF0E0E832D091505040E695D4
:102BE000001CCAF72BD0FE2F29D0660F771F881F35
:102BF000BB1F261737074807AB07B0E809F0BB0B28
:102C0000802DBF01FF2793585F4F3AF09E3F51053B
:102C100078F00C946D160C94B8165F3FE4F3983E70
:102C2000D4F3869577956795B795F7959F5FC9F724
:102C3000880F911D9695879597F90895E1E0660FA5
:102C4000771F881FBB1F621773078407BA0720F01E
:102C5000621B730B840BBA0BEE1F88F7E095089587
:102C6000E89409C097FB3EF4909580957095619526
:102C70007F4F8F4F9F4F9923A9F0F92F96E9BB27DC
:102C80009395F695879577956795B795F111F8CF58
:102C9000FAF4BB0F11F460FF1BC06F5F7F4F8F4FC3
:102CA0009F4F16C0882311F096E911C0772321F0B9
:102CB0009EE8872F762F05C0662371F096E8862F51
:102CC00070E060E02AF09A95660F771F881FDAF7A8
:102CD000880F9695879597F9089597F99F6780E8EB
:102CE00070E060E008959FEF80EC089500240A945E
:102CF0001616170618060906089500240A941216D7
:102D00001306140605060895092E0394000C11F409
:102D1000882352F0BB0F40F4BF2B11F460FF04C0B6
:102D20006F5F7F4F8F4F9F4F089557FD9058440F0F
:102D3000551F59F05F3F71F04795880F97FB991F1A
:102D400061F09F3F79F087950895121613061406D7
:102D5000551FF2CF4695F1DF08C016161706180664
:102D6000991FF1CF86957105610508940895E8943F
:102D7000BB2766277727CB0197F908950E94D116C4
:102D80000C9484160E94761638F00E947D1620F06E
:102D9000952311F00C946D160C94731611240C9459
:102DA000B8160E94951670F3959FC1F3950F50E0E9
:102DB000551F629FF001729FBB27F00DB11D639FED
:102DC000AA27F00DB11DAA1F649F6627B00DA11D93
:102DD000661F829F2227B00DA11D621F739FB00D39
:102DE000A11D621F839FA00D611D221F749F3327A9
:102DF000A00D611D231F849F600D211D822F762F42
:102E00006A2F11249F5750409AF0F1F088234AF01E
:102E1000EE0FFF1FBB1F661F771F881F915050408A
:102E2000A9F79E3F510580F00C946D160C94B816CE
:102E30005F3FE4F3983ED4F3869577956795B79511
:102E4000F795E7959F5FC1F7FE2B880F911D96952B
:102E5000879597F908950F931F93CF93DF9382304F
:102E6000910510F482E090E0E0914904F0914A0469
:102E700020E030E0A0E0B0E0309719F140815181CE
:102E80000281138148175907C8F08417950769F420
:102E9000109731F012960C93129713961C9327C03B
:102EA0000093490410934A0422C02115310519F0FA
:102EB0004217530718F49A01BD01EF01DF01F80131
:102EC000DBCF21153105F9F0281B390B24303105F2
:102ED00080F48A819B816115710521F0FB01938348
:102EE000828304C090934A0480934904FE01329681
:102EF00044C0FE01E20FF31F8193919322503109E8
:102F0000398328833AC02091470430914804232B09
:102F100041F4209102013091030130934804209341
:102F2000470420910001309101012115310541F440
:102F30002DB73EB74091040150910501241B350B7C
:102F4000E0914704F0914804E217F307A0F42E1B28
:102F50003F0B2817390778F0AC014E5F5F4F2417FD
:102F6000350748F04E0F5F1F5093480440934704C5
:102F70008193919302C0E0E0F0E0CF01DF91CF9127
:102F80001F910F910895CF93DF93009709F481C0AB
:102F9000FC01329713821282A0914904B0914A0435
:102FA000109781F420813181820F931F2091470473
:102FB000309148042817390751F5F0934804E093FD
:102FC000470467C0ED0120E030E0CE17DF0740F492
:102FD0004A815B819E0141155105F1F0EA01F5CF6F
:102FE000D383C28340815181840F951FC817D907AD
:102FF00059F488819981840F951F0296918380836B
:103000008A819B81938382832115310529F4F09372
:103010004A04E09349043DC0E901FB83EA834991F6
:103020005991C40FD51FEC17FD0761F48081918180
:10303000840F951F0296E901998388838281938189
:103040009B838A83E0E0F0E012968D919C91139728
:10305000009719F0FD01DC01F7CF8D919C9111973C
:103060009D012E5F3F4F820F931F209147043091A7
:1030700048042817390769F4309729F410924A0454
:103080001092490402C013821282B0934804A093A4
:103090004704DF91CF91089581E090E0F8940C947B
:1030A000121BAEE0B0E0E7E5F8E10C94B9140D892D
:1030B0001E898F89988D26E02C831A83098397FFB8
:1030C00002C080E090E801979E838D83AE01455E4B
:1030D0005F4F698D7A8DCE0101960E9481184D81D6
:1030E0005E8157FD0AC02F813885421753070CF4C3
:1030F0009A01F801E20FF31F10822E96E4E00C947F
:10310000D514ABE0B0E0E7E8F8E10C94AB146C0147
:103110007B018A01FC0117821682838181FFCCC169
:10312000CE0101963C01F6019381F70193FD859153
:1031300093FF81917F01882309F4BAC1853239F464
:1031400093FD859193FF81917F01853229F4B6012A
:1031500090E00E94781AE7CF912C212C312CFFE1CE
:10316000F315D8F08B3279F038F4803279F083326D
:10317000A1F4232D20611DC08D3261F0803369F4EC
:10318000232D216016C0832D8260382EE32DE4604C
:103190003E2E2AC0F32DF8601DC037FC2DC020ED57
:1031A000280F2A3040F08E32B9F436FC81C1232D2D
:1031B0002064322E19C036FE06C08AE0989E200D8B
:1031C0001124922E11C0EAE02E9E200D1124222EF1
:1031D000F32DF0623F2E08C08C3621F4832D8068D9
:1031E000382E02C0883641F4F70193FD859193FF94
:1031F00081917F018111B3CF982F9F7D955493309A
:1032000028F40C5F1F4F9FE399830DC0833631F084
:10321000833771F0833509F059C021C0F8018081EE
:1032200089830E5F1F4F88248394912C530113C010
:103230002801F2E04F0E511CF801A080B18036FE4B
:1032400003C0692D70E002C06FEF7FEFC5010E94DF
:103250006D1A4C018201F32DFF773F2E16C0280115
:1032600022E0420E511CF801A080B18036FE03C05E
:10327000692D70E002C06FEF7FEFC5010E94621AF6
:103280004C01F32DF0683F2E820133FC1BC0822DD0
:1032900090E088169906B0F4B60180E290E00E94B2
:1032A000781A2A94F4CFF50137FC859137FE819185
:1032B0005F01B60190E00E94781A21102A9421E063
:1032C000821A91088114910471F7E8C0843611F0D4
:1032D000893641F5F80137FE07C06081718182812E
:1032E00093810C5F1F4F08C060817181072E000C15
:1032F000880B990B0E5F1F4FF32DFF763F2E97FF24
:1033000009C090958095709561957F4F8F4F9F4F25
:10331000F0683F2E2AE030E0A3010E94B41A882E04
:10332000861845C0853731F4232D2F7EB22E2AE032
:1033300030E025C0932D997FB92E8F36C1F018F457
:10334000883579F0B5C0803719F0883721F0B0C0E2
:10335000E92FE061BE2EB4FE0DC0FB2DF460BF2E40
:1033600009C034FE0AC0292F2660B22E06C028E00C
:1033700030E005C020E130E002C020E132E0F80199
:10338000B7FE07C060817181828193810C5F1F4FFE
:1033900006C06081718180E090E00E5F1F4FA30145
:1033A0000E94B41A882E8618FB2DFF773F2E36FE1A
:1033B0000DC0232D2E7FA22E891458F434FE0BC08D
:1033C00032FC09C0832D8E7EA82E05C0B82CA32CFC
:1033D00003C0B82C01C0B92CA4FE0FC0FE01E80D3B
:1033E000F11D8081803321F49A2D997EA92E09C088
:1033F000A2FE06C0B394B39404C08A2D867809F067
:10340000B394A3FC11C0A0FE06C0B21488F4280C2B
:10341000922C9B180EC0B21460F4B60180E290E0CA
:103420000E94781AB394F7CFB21418F42B1802C084
:10343000982C212CA4FE10C0B60180E390E00E94DD
:10344000781AA2FE17C0A1FC03C088E790E002C072
:1034500088E590E0B6010CC08A2D867859F0A1FE6F
:1034600002C08BE201C080E2A7FC8DE2B60190E0D1
:103470000E94781A891438F4B60180E390E00E9423
:10348000781A9A94F7CF8A94F301E80DF11D8081A0
:10349000B60190E00E94781A8110F5CF222009F43D
:1034A00042CEB60180E290E00E94781A2A94F6CFCC
:1034B000F6018681978102C08FEF9FEF2B96E2E1A4
:1034C0000C94C714FC010590615070400110D8F7AE
:1034D000809590958E0F9F1F0895FC01615070405C
:1034E00001900110D8F7809590958E0F9F1F089539
:1034F0000F931F93CF93DF93FB01238121FD03C023
:103500008FEF9FEF2CC022FF16C046815781248188
:1035100035814217530744F4A081B1819D012F5F8B
:103520003F4F318320838C93268137812F5F3F4F1C
:103530003783268314C08B01EC01FB010084F185E5
:10354000E02D0995892BE1F6D80116968D919C9175
:103550001797019617969C938E931697CE01DF913D
:10356000CF911F910F910895FA01AA27283051F1A8
:10357000203181F1E8946F936E7F6E5F7F4F8F4FA4
:103580009F4FAF4FB1E03ED0B4E03CD0670F781F03
:10359000891F9A1FA11D680F791F8A1F911DA11DE8
:1035A0006A0F711D811D911DA11D20D009F4689421
:1035B0003F912AE0269F11243019305D3193DEF6C9
:1035C000CF010895462F4770405D4193B3E00FD07F
:1035D000C9F7F6CF462F4F70405D4A3318F0495D6A
:1035E00031FD4052419302D0A9F7EACFB4E0A6954D
:1035F0009795879577956795BA95C9F7009761056F
:10360000710508959B01AC010A2E069457954795C4
:1036100037952795BA95C9F7620F731F841F951FB9
:10362000A01D089510E0CFEED0E004C0FE010E947E
:0E3630004B152196C03FD107C9F7F894FFCF84
:10363E0000004B0420005E00BC007701AE47C13F86
:10364E00EC5180407B14EE3F0000E040B81E054078
:10365E00CDCC0C4152B80E40F6282041CDCC4C3E7C
:10366E0000005C439A99193F00000D4400000000D1
:10367E0000008842000040001400540000000000CA
:10368E006006A706000000002208F5073101C907F1
:10369E00ED07D907CA0700000000DD087608A0086C
:1036AE002A091A01AF08C308000000005303760868
:1036BE003101300100000000D108760831013001DF
:1036CE002D2D2D2D2D2D2D2D2D5741544552205064
:1036DE00554D502053544F505320617420002D2DC2
:1036EE002D2D2D2D2D2D2D57415445522050554DFC
:1036FE00502053544152545320617420005048209E
:10370E003A257320202000434E443A25732000545E
:10371E004D503A2573002573202D2025736D20669C
:10372E0061005374617274696E672E2E2E002A2A00
:10373E002A2A2A2A2A2A2A2020204F72746F2049E8
:10374E0044524F504F4E49434F20312E30202020AF
:10375E002A2A2A2A2A2A2A2A2A000D0A00256464DD
:0A376E002025643A25643A25640022
:00000001FF
