:100000000C94F0000C9418010C9418010C94180135
:100010000C9418010C9418010C9418010C941801FC
:100020000C9418010C9418010C9418010C941801EC
:100030000C9418010C9418010C9418010C941801DC
:100040000C94E6100C9418010C9456110C94301179
:100050000C9418010C9418010C9418010C941801BC
:100060000C94C70F0C94180100407A10F35A00A0AA
:10007000724E18090010A5D4E80000E87648170071
:1000800000E40B54020000CA9A3B000000E1F505B1
:10009000000080969800000040420F000000A086FB
:1000A00001000000102700000000E803000000002D
:1000B0006400000000000A000000000001000000D1
:1000C00000002C76D888DC674F0823DFC1DFAE59EB
:1000D000E1B1B796E5E3E453C63AE651997696E87E
:1000E000E6C28426EB898C9B62ED407C6FFCEFBC02
:1000F0009C9F40F2BAA56FA5F490055A2AF75C932D
:100100006B6CF9676DC11BFCE0E40D47FEF520E662
:10011000B500D0ED902E0300943577050080841E45
:10012000080000204E0A000000C80C333333330FA0
:10013000986E12831141EF8D2114893BE65516CF3D
:10014000FEE6DB18D1844B381BF77C1D901DA4BB49
:10015000E424203284725E228100C9F124ECA1E5FE
:100160003D27005EBCE2613FDD83C29C7E20A3FD93
:100170001F41009D23BE46DB65F88C11AF32CA5784
:10018000E97400000000240027002A00000000009D
:10019000250028002B0000000008000201000003D9
:1001A0000407000000000000000000000000230021
:1001B00026002900040404040404040402020202C8
:1001C000020203030303030301020408102040801A
:1001D0000102040810200102040810208811DB1518
:1001E00011241FBECFEFD8E0DEBFCDBF13E0A0E0EB
:1001F000B1E0E4E0FEE302C005900D92A834B1073F
:10020000D9F725E0A8E4B3E001C01D92A93BB207ED
:10021000E1F710E0CFEED0E004C02197FE010E948C
:10022000E018CE3ED107C9F70E94E4120C94F51EE7
:100230000C940000FC0182818E7F828382818D7FFD
:10024000828382818B7F828313861486158616862D
:1002500017821086118612861382148215821682E6
:1002600012A211A214A213A216A215A2178A108E0E
:10027000118E128E0895FC0185A196A1892BB1F4EF
:1002800084E595E096A385A380915405909155054A
:10029000892B69F4F0935505E093540512A211A23D
:1002A00014A213A2F0935705E09356050895A09168
:1002B0005605B0915705B2A3A1A39496FC93EE9373
:1002C0009397EECF2091C303260F3327331F21329C
:1002D0003105ECF42091E903FC0190E080E024304A
:1002E00069F082E00895A091C3032191AC014F55BC
:1002F0005C4FA40FB52FB11D2C930196861798F370
:100300008091C303680F6093C30380E0089581E088
:100310000895089508950895E091980380919703B2
:10032000E81730F4F0E0E958FC4F808190E0089540
:100330008FEF9FEF089590919803809197032FEF8F
:100340003FEF981748F4E92FF0E0E958FC4F20817F
:1003500030E09F5F90939803C901089580919703BF
:1003600090919803891B990B0895CF92DF92EF9299
:10037000FF920F931F93CF93DF937C01CB018A01F0
:1003800020917603222389F0EB016B01C40ED51E68
:10039000CC15DD0569F06991D701ED91FC910190D3
:1003A000F081E02DC7010995F3CF642F0E9462010F
:1003B000C801DF91CF911F910F91FF90EF90DF90D7
:1003C000CF900895CF93DF931F92CDB7DEB76983A7
:1003D000209176032223F9F020919903203258F0DE
:1003E00021E030E0FC013383228390E080E00F9035
:1003F000DF91CF91089580919A03E82FF0E0EA5AB7
:10040000FC4F998190838F5F80939A038093990327
:1004100081E090E0ECCF61E0CE0101960E946201A4
:10042000F7CF90E0FC01EA56FE4F2491FC01E8531F
:10043000FE4F3491FC01EC54FE4FE491EE23C9F0E1
:10044000222339F0233001F1A8F4213019F12230B0
:1004500029F1F0E0EE0FFF1FE457FE4FA591B49194
:100460008FB7F894EC91611126C030953E233C93F0
:100470008FBF08952730A9F02830C9F0243049F7FC
:10048000809180008F7D03C0809180008F77809362
:100490008000DFCF84B58F7784BDDBCF84B58F7DBF
:1004A000FBCF8091B0008F778093B000D2CF809146
:1004B000B0008F7DF9CF3E2BDACF1092E90381E0B7
:1004C0008093EB031092EA0361E082E10E94110243
:1004D00061E083E10E941102E9EBF0E080818E7F10
:1004E000808380818D7F808388E48093B80085E459
:1004F0008093BC000895CF93DF9391E09093A00385
:100500008823B9F0C091B800D091BA008091BC00A6
:100510008A7B8093BC0060E082E10E94110260E06F
:1005200083E10E9411020E945D02D093BA00C09341
:10053000B800DF91CF910895CF93DF9390E0FC0155
:10054000E853FE4F24918C549E4FFC0184918823E4
:10055000D1F090E0880F991FFC01EE57FE4FA59156
:10056000B491FC01E457FE4FC591D49161110EC0C6
:100570009FB7F8948C91E22FE0958E238C9328817D
:10058000E223E8839FBFDF91CF9108958FB7F8945E
:10059000EC91E22BEC938FBFF6CF3FB7F8948091AC
:1005A000520390915303A0915403B091550326B583
:1005B000A89B05C02F3F19F00196A11DB11D3FBF9B
:1005C000BA2FA92F982F8827BC01CD01620F711D6A
:1005D000811D911D42E0660F771F881F991F4A9564
:1005E000D1F708958F929F92AF92BF92CF92DF92F0
:1005F000EF92FF926B017C010E94CD024B015C01E6
:10060000C114D104E104F104B9F00E94CD026819CB
:1006100079098A099B09683E73408105910580F339
:1006200021E0C21AD108E108F10888EE880E83E0C3
:10063000981EA11CB11CE4CFFF90EF90DF90CF90EB
:10064000BF90AF909F908F9008952FB7F8946091CE
:100650004E0370914F0380915003909151032FBF2F
:100660000895CF93DF93EC014B835C836D837E838E
:100670008B819C81AD81BE818F839887A987BA8742
:100680000E9425036B877C878D879E87DF91CF91A2
:100690000895AF92BF92CF92DF92EF92FF920F93A5
:1006A0001F93CF93DF936C017B018B01040F151F08
:1006B000EB015E01AE18BF08C017D10759F0699170
:1006C000D601ED91FC910190F081E02DC6010995D4
:1006D000892B79F7C501DF91CF911F910F91FF9081
:1006E000EF90DF90CF90BF90AF900895FC01538DB5
:1006F000448D252F30E0842F90E0821B930B5417FC
:1007000010F0CF96089501970895FC01918D828D88
:10071000981761F0A28DAE0FBF2FB11D5D968C9121
:10072000928D9F5F9F73928F90E008958FEF9FEF60
:100730000895FC01918D828D981731F0828DE80F1C
:10074000F11D858D90E008958FEF9FEF0895FC01D6
:10075000918D228D892F90E0805C9F4F821B9109A3
:100760008F73992708958BE194E00E94A70321E0FD
:10077000892B09F420E0822F089580E090E0892BF6
:1007800029F00E94B30381110C9400000895FC012C
:10079000A48DA80FB92FB11DA35ABF4F2C91848DE2
:1007A00090E001968F739927848FA689B7892C933F
:1007B000A089B1898C91837080648C93938D848D92
:1007C000981306C00288F389E02D80818F7D808395
:1007D0000895EF92FF920F931F93CF93DF93EC0155
:1007E00081E0888F9B8D8C8D98131AC0E889F989D8
:1007F000808185FF15C09FB7F894EE89FF896083DB
:10080000E889F98980818370806480839FBF81E05B
:1008100090E0DF91CF911F910F91FF90EF9008959D
:10082000F62E0B8D10E00F5F1F4F0F731127E02E78
:100830008C8D8E110CC00FB607FCFACFE889F989B0
:10084000808185FFF5CFCE010E94C703F1CFEB8DEC
:10085000EC0FFD2FF11DE35AFF4FF0829FB7F89484
:100860000B8FEA89FB8980818062CFCFCF93DF93A2
:10087000EC01888D8823B9F0AA89BB89E889F989B8
:100880008C9185FD03C0808186FD0DC00FB607FCED
:10089000F7CF8C9185FFF2CF808185FFEDCFCE0120
:1008A0000E94C703E9CFDF91CF910895CF92DF92E5
:1008B000EF92FF920F931F93CF93DF93FC01C481BC
:1008C00021E020937603C0934C0310929A03109278
:1008D00099038485682B8FE094E00E94E201D09117
:1008E0009903D13208F092C00E94CD026B017C01C5
:1008F0008091E903811165C082E08093E90381E082
:100900008093EB038FEF8093E80310920D04D09354
:100910000C04A6E5B3E0ECEEF3E080E0D81385C06C
:1009200010920E0480910E04CC0FC82BC0930E04BD
:100930008091EA03813009F07CC01092EA030E94A2
:10094000CD026B017C0180910E048093BB008091ED
:100950009C0390919D03A0919E03B0919F03892BCE
:100960008A2B8B2B99F00E94CD0200919C03109151
:100970009D0320919E0330919F036C197D098E0980
:100980009F090617170728073907E0F18091BC0077
:1009900083FDD9CF85EC8093BC000E94CD026B0112
:1009A0007C018091E903823009F445C08091E8031D
:1009B0008F3F61F18091E803803241F18091E8033B
:1009C00025C080919C0390919D03A0919E03B091BE
:1009D0009F03892B8A2B8B2B09F48ACF0E94CD028F
:1009E00000919C0310919D0320919E0330919F03E1
:1009F0006C197D098E099F09061717072807390703
:100A000008F076CF80919B030E947B0210929A039C
:100A10001092990310927603DF91CF911F910F915D
:100A2000FF90EF90DF90CF9008959D9191938F5F0D
:100A300075CF85EEB0CF80919C0390919D03A091DE
:100A40009E03B0919F03892B8A2B8B2B09F4A9CF8E
:100A50000E94CD0200919C0310919D0320919E0362
:100A600030919F036C197D098E099F09061717079E
:100A70002807390708F095CFC5CF089590E080E0AA
:100A80000895DC0180E0615090F09D919827E92F56
:100A9000EF70F0E0EE59FE4F2491E92FE295EF70F0
:100AA000F0E0EE58FE4FE491822F8E27ECCF0895B0
:100AB000DC012C911196ED91FC91F8948181822BAF
:100AC00081839281322F30959323928387E090E047
:100AD0000197F1F781818323818383E290E001977D
:100AE000F1F790817894EFECF0E03197F1F79223F1
:100AF00081E009F480E00895FC0190810180F28199
:100B0000E02D292F209560FF14C0F8948281822364
:100B100082838181892B8183A3E2B0E01197F1F771
:100B20008281982B9283789487ED90E00197F1F77A
:100B30000895F8948281822382838181892B818325
:100B4000AFEFB0E01197F1F78281982B9283789400
:100B50008FE090E0EBCFDF92EF92FF920F931F9325
:100B6000CF93DF93EC01D62EE42E08E010E0FF24B3
:100B7000F39461E08D2D8F2109F460E0CE010E9495
:100B80007C05FF0C01501109A1F7E11010C0F89489
:100B9000E981FA8191818881809589238183E98126
:100BA000FA81928188818095892382837894DF916C
:100BB000CF911F910F91FF90EF90DF900895EF92EA
:100BC000FF920F931F93CF93DF938C017B0140E043
:100BD00065E50E94AB05E70188E0E80EF11C69912C
:100BE00040E0C8010E94AB05CE15DF05C1F7DF91DB
:100BF000CF911F910F91FF90EF900895FC0190818C
:100C00000180F281E02DF8948181292F20958223A3
:100C1000818378943DE743E050E0315029F1DA01D7
:100C20001197F1F780818923C1F3F894828182239F
:100C300082838181892B81837894ABE7B7E0119718
:100C4000F1F7F894818182238183A3E1B1E01197C8
:100C5000F1F78081982381E009F080E07894E3E661
:100C6000F6E03197F1F7089580E008956F927F9252
:100C70008F929F92AF92BF92CF92DF92EF92FF92AC
:100C80000F931F93CF93DF938C01EB0180918C0521
:100C900090918D050E94FE05882309F43FC0B8019C
:100CA00080918C0590918D050E94DF0540E06EEBF0
:100CB00080918C0590918D050E94AB057E016E019F
:100CC00089E0C80ED11C8E01A0908C05B0908D05D6
:100CD00088E0882E912C712C66246394C5010E94B3
:100CE000580581117628660CE1E08E1A9108B1F75B
:100CF000F80171928F01CE16DF0631F780918C05D5
:100D000090918D050E94FE05813041F4F70181919B
:100D10007F01811105C0E017F107C1F790E008C01D
:100D200068E0CE010E94410591E028852813F6CFA6
:100D3000892FDF91CF911F910F91FF90EF90DF905E
:100D4000CF90BF90AF909F908F907F906F900895BD
:100D5000FC01128264818081938191110C941102B3
:100D600091E06927FBCFFC0191E09283648180814F
:100D70002381211169270C9411020F931F93CF93A4
:100D8000DF93DC015F96ED91FC91309781F0EC01EF
:100D9000ADA1BEA114960D911C91159715969C932B
:100DA0008E9314970995EDA1FEA115830483DF911D
:100DB000CF911F910F9108950F931F93CF93DF93BE
:100DC000FC01A5A1B6A1109709F445C0EC01178A52
:100DD000108E118E128E82818B7F8283058CF68D10
:100DE000E02D3097A1F18A8181FD31C014960D91DB
:100DF0001C9115971596DC93CE9314978A81826087
:100E00008A8309959A8180FB90F99A838A818D7FE4
:100E10008A83EDA1FEA1158304830E9425030B8123
:100E20001C812D813E810F83188729873A87601B9B
:100E3000710B820B930B6B877C878D879E878A81D2
:100E40008A818170DF91CF911F910F9108958A81DE
:100E500081608A83E2CF80E0F5CFCF93DF93EC010E
:100E600080E891E0998388839A818A818E7F8A8342
:100E70008A818D7F8A8390FF03C0CE010E94BD06C8
:100E80008DA19EA1009791F01EA21DA2E9A1FAA139
:100E9000ABA1BCA13097A9F4109759F4DC011196CD
:100EA0001C921E9213961C921E921297DF91CF9164
:100EB000089592961C921E929197FC01B183A08393
:100EC000F5CF109741F414A213A2DC011396FC9302
:100ED000EE931297EBCFB4A3A3A3ABA1BCA19296C0
:100EE000FC93EE939197E2CF2F923F924F925F92B5
:100EF0006F927F928F929F92AF92BF92CF92DF922A
:100F0000EF92FF920F931F93CF93DF93CDB7DEB78E
:100F100062970FB6F894DEBF0FBECDBF6B018C0198
:100F20007C01312C212C812C912C54012401350180
:100F3000F7012081318142815381C301B2010E94B6
:100F4000E7182B013C01F701248135814681578147
:100F5000C501B4010E94E7184B015C01FFEF2F1A95
:100F60003F0A88E0E80EF11CC214D30409F7B1016E
:100F700090E080E00E94F9196B017C01AC019B01BB
:100F8000C301B2010E9458196B877C878D879E87A9
:100F9000A7019601C501B4010E9458196F87788B8B
:100FA000898B9A8B1A861986812C912C5401750194
:100FB00064012B853C854D855E85F80160817181DA
:100FC000828193810E94E6182B013C012F8538898C
:100FD00049895A89F80164817581868197810E94C7
:100FE000E618A30192010E94B01A9B01AC01C7014F
:100FF000B6010E94E7186B017C01A3019201C301B5
:10100000B2010E94B01A9B01AC01C501B4010E945B
:10101000E7184B015C0189859A8501969A87898733
:10102000085F1F4F2816390621F6A5019401C70154
:10103000B6010E945819E62FB72F162F462F572FAB
:10104000682F792F49835A836B837C832B853C855A
:101050004D855E856E2F7B2F0E94B01A9B01AC01DF
:101060006F85788989899A890E94E618E62F462F2C
:10107000572FBC014D835E836F837887212F3A8180
:101080004B815C816E2F7E818F81988562960FB631
:10109000F894DEBF0FBECDBFDF91CF911F910F91AE
:1010A000FF90EF90DF90CF90BF90AF909F908F9088
:1010B0007F906F905F904F903F902F9008958F9208
:1010C0009F92AF92BF92CF92DF92EF92FF920F93D7
:1010D0001F93CF93DF93CDB7DEB728970FB6F89461
:1010E000DEBF0FBECDBF7C0150E040E070E060E0AD
:1010F000F7010281138140175107ECF480818E3093
:1011000008F08E508770806480937C0080917A0014
:10111000806480937A0080917A0086FDFCCF909164
:10112000780080917900892798278927680F791F8F
:101130004F5F5F4FDDCF90E080E00E94F9194B01D7
:101140005C01B801110F880B990B0E94FB199B01E0
:10115000AC01C501B4010E94581920E030E040EA1A
:1011600050E40E94B01A20E030E040E85AE30E94C8
:10117000B01A162FC72ED82E092FF70124813581DA
:10118000468157810E94B01AF7012085318542853A
:1011900053850E94E718E62F272F412F5C2D6D2DD8
:1011A000702F49835A836B837C834E2F522FBC014F
:1011B0004D835E836F837887212F3A814B815C81D9
:1011C0006E2F7E818F81988528960FB6F894DEBFAA
:1011D0000FBECDBFDF91CF911F910F91FF90EF9088
:1011E000DF90CF90BF90AF909F908F900895BF9267
:1011F000CF92DF92EF92FF920F931F93CF93DF93E3
:10120000EC01B62EC72E8D85811105C0CE010E943E
:10121000FE0581110EC01B861D861C8680E0DF91B5
:10122000CF911F910F91FF90EF90DF90CF90BF90E3
:10123000089540E060EFCE010E94AB0501E0E12C93
:10124000D12C11E0CE010E945805F82ECE010E944B
:10125000580591E0F91218C0813099F51134D8F28F
:10126000DB86D11002C081E08D878B81882399F2C3
:101270002396EB2DFC2DCF01089629912193E81799
:10128000F907D9F781E0CBCFEE2DF0E0F8120FC0CF
:101290008B851817A0F4DE01AE0FBF1F13968C913B
:1012A000802379F4F12C193008F41C87D12EEC0F2F
:1012B000FD1F8381902F9095892383830AC081131A
:1012C000F1CFFE01EE0DF11D8381802B8383FF247E
:1012D000F3946F2DCE010E947C051F5F000F11F467
:1012E000E39401E087E08E1508F0ACCFB7CF0F9301
:1012F0001F93CF938C01C62F0E9456046C2F6460FD
:10130000C8010E9456046C2F6B7FC8010E945604CE
:1013100083EC90E00197F1F7CF911F910F91089521
:101320000F931F93CF93DF938C01D62FC42F607F31
:10133000642B0E94770980E1D89FB00111246C2BA7
:10134000C801DF91CF911F910F910C947709CF9332
:10135000DF93CDB7DEB728970FB6F894DEBF0FBE88
:10136000CDBF98E0E6E0F1E0DE01119601900D922C
:101370009A95E1F79091B005981710F48FEF890FC7
:1013800090E0880F991F21E030E02C0F3D1F820F65
:10139000931FFC016081606840E088EA95E0289630
:1013A0000FB6F894DEBF0FBECDBFDF91CF910C9486
:1013B000900940E061E088EA95E00E9490098BE3A3
:1013C0009FE10197F1F78091B105882319F080E042
:1013D0000C94A709089541E00E94900981E090E0F3
:1013E00008954F925F926F927F928F929F92AF92E9
:1013F000BF92CF92DF92EF92FF920F931F93CF9302
:10140000DF93EC016A017B01CB01BA0128EE33E0E6
:1014100040E050E00E94AD188CE3482E512C612C26
:10142000712CCA01B901A30192010E94AD18962E38
:10143000872EC701B60120E63AEE40E050E00E9458
:10144000AD18CA01B901A30192010E94AD18B62ED0
:10145000A72EC701B60120E83EEE46E350E00E9409
:10146000AD18CA01B90128E130E040E050E00E9427
:10147000AD18162F072FC701B60120E03CE546E264
:1014800055E00E94AD182115310551F58F929F92BC
:10149000AF92BF920F931F9388E891E09F938F9331
:1014A0001F9284E18F93DF93CF930E94471C8DB7E7
:1014B0009EB70C960FB6F8949EBF0FBE8DBFDF91FE
:1014C000CF911F910F91FF90EF90DF90CF90BF9041
:1014D000AF909F908F907F906F905F904F90089506
:1014E0008F929F92AF92BF920F931F933F932F9330
:1014F00084E891E09F938F931F9284E18F93DF9311
:10150000CF930E94471C8DB79EB70E960FB6F894E6
:101510009EBF0FBE8DBFD3CF85ED8093BC00809161
:101520009C0390919D03A0919E03B0919F03079609
:10153000A11DB11D23E0B695A795979587952A958E
:10154000D1F72091BC0024FD03C01092E903089557
:1015500040919C0350919D0360919E0370919F0365
:10156000452B462B472B69F30097A105B10541F0A8
:1015700025E32A95F1F700000197A109B109E1CF10
:1015800080919B030C947B02FB0101900020E9F702
:101590003197AF01461B570BDC01ED91FC910280A6
:1015A000F381E02D09948F929F92AF92BF920F9397
:1015B0001F93CF93DF93CDB7DEB7A1970FB6F89403
:1015C000DEBF0FBECDBF19A2423008F44AE08E0143
:1015D0000F5D1F4F842E912CB12CA12CA5019401DD
:1015E0000E948B18E62FB901CA01EA3004F5E05DCC
:1015F000D801EE938D01232B242B252B79F790E036
:1016000080E0109729F0BD018BE194E00E94C40AAC
:10161000A1960FB6F894DEBF0FBECDBFDF91CF917C
:101620001F910F91BF90AF909F908F900895E95CAC
:10163000DFCFCF93DF93BC018BE194E00E94C40A1B
:10164000EC0161E971E08BE194E00E94C40A8C0F27
:101650009D1FDF91CF910895CF93DF93BC01990F28
:10166000880B990B4AE00E94D30AEC0161E971E012
:101670008BE194E00E94C40A8C0F9D1FDF91CF91F3
:1016800008954F925F926F927F928F929F92AF9246
:10169000BF92CF92DF92EF92FF926B017C01AC017F
:1016A0009B010E941D1B64E971E081111AC0460173
:1016B0005701E894B7F82FEF3FEF4FE75FE7C50119
:1016C000B4010E941D1B811126C02FEF3FEF4FE791
:1016D0005FE7C501B4010E9453191816E4F468E9E4
:1016E00071E08BE194E00E94C40A7C0161E971E041
:1016F0008BE194E00E94C40A8E0D9F1DFF90EF9035
:10170000DF90CF90BF90AF909F908F907F906F9021
:101710005F904F9008952FEF3FEF4FE75FE4C701D1
:10172000B6010E94AB1A18161CF46CE971E0D9CF0F
:101730002FEF3FEF4FE75FECC701B6010E9453194F
:1017400087FDF3CF20E030E0A901C701B6010E9478
:101750005319B12CA12C87FF0AC06DE28BE194E0F4
:101760000E94E9035C01F7FAF094F7F8F0942AE09C
:1017700037ED43EA5BE3C701B6010E94E7182B018E
:101780003C010E94CA196B017C010E94F9199B015E
:10179000AC01C301B2010E94E6182B013C014AE0F2
:1017A000C701B6010E94D30A7C01EA0CFB1C6EE261
:1017B0008BE194E00E94E903E80EF91E20E030E09E
:1017C00040E251E4C301B2010E94B01A2B013C0176
:1017D0000E94CA194B01B12CA12C4AE0C501B401E9
:1017E0000E94D30AE80EF91EC501B4010E94F9193E
:1017F0009B01AC01C301B2010E94E61820E030E079
:1018000040E251E40E94B01A0E94CA1990E080E0C0
:101810004AE00E94D30AE80EF91E68CF0C94C40A6D
:101820004F925F926F927F929F92AF92BF92CF92B0
:10183000DF92EF92FF920F931F93CF93DF93CDB779
:10184000DEB7C655D1090FB6F894DEBF0FBECDBFC7
:1018500087E795E00E945F082C966FAF2C972D9636
:101860007FAF2D972E968FAF2E972F969FAF2F97E6
:101870008BE695E00E945F0864966FAF649765966B
:101880007FAF659766968FAF669767969FAF6797AE
:1018900080918C0590918D050E94FE0540E06CECD6
:1018A00080918C0590918D050E94AB054091830538
:1018B00064E480918C0590918D050E94AB05809128
:1018C0008705882311F1E09186058091880588239A
:1018D00009F41CC180918305811118C10E94250360
:1018E0006B017C0180918C0590918D050E945805BB
:1018F000813059F00E9425036C197D098E099F09DA
:101900006E3E72408105910568F3E0918C05F0917F
:101910008D05138615861486128611861086178209
:1019200016821582148213826E0135E1C30ED11C1A
:10193000B60180918C0590918D050E94F708AE014B
:101940004F5F5F4F7A01811109C1412C512CFEEF8D
:101950006F2EF2EC7F2E0E94D9095E018DE3A80E56
:10196000B11C2F966CAD7DAD8EAD9FAD2F978501CF
:1019700021E044E00E94EB15BF92AF9280EA91E033
:101980009F938F931F9284E1982E9F92FF92EF92E4
:101990000E94471CB70188EA95E00E940E0C6796EA
:1019A0006CAD7DAD8EAD9FAD679721E045E00E94A7
:1019B000EB15BF92AF928AEA91E09F938F931F92AB
:1019C0009F92FF92EF920E94471CB70188EA95E030
:1019D0000E940E0C81E00E94A70921E045E0C301AE
:1019E000B2010E94EB15BF92AF9282EB91E09F9300
:1019F0008F931F929F92FF92EF920E94471CB70114
:101A000088EA95E00E940E0C82E00E94A7090E94DD
:101A10002503AB01BC01C6010E94F1090E94250308
:101A2000409048035090490360904A0370904B03E4
:101A30009B01AC01241935094609570929013A01CE
:101A4000CA01B90120E63AEE40E050E00E94AD182C
:101A5000CA01B9012CE330E040E050E00E94AD182B
:101A60007F936F93C301B20120E83EEE46E350E05E
:101A70000E94AD18CA01B90128E130E040E050E011
:101A80000E94AD187F936F938BE891E09F938F93A3
:101A90001F929F925E0139E2A30EB11CBF92AF92DA
:101AA0000E94471C0FB6F894DEBF0FBECDBFBF9299
:101AB000AF92DF92CF9289EB91E09F938F931F9229
:101AC0009F92FF92EF920E94471CB70188EA95E02F
:101AD0000E940E0C0FB6F894DEBF0FBECDBFCA5ADF
:101AE000DF4F0FB6F894DEBF0FBECDBFDF91CF91B1
:101AF0001F910F91FF90EF90DF90CF90BF90AF902C
:101B00009F907F906F905F904F900895E9508EEE78
:101B100092E0E33038F4F0E0EE0FFF1FEA5BFE4F97
:101B2000808191816C01990FEE08FF0880918405F6
:101B3000882329F060E0809185050E941102C70189
:101B4000B6010E94F20280918405882309F4DDCE5B
:101B500061E0809185050E941102D7CE67E0C60141
:101B60000E9441059C8D8913F0CEB701C6010E94E9
:101B70003606882309F4E9CE6A8170E0762F66275D
:101B8000770F770F770F298158E0259F9001112457
:101B9000262B372B8D898031E1F468856623C9F0C7
:101BA00070E08F81AB01481B5109CA019695982FAF
:101BB0008827979587950E947718CB018097B90160
:101BC00053E0660F771F5A95E1F760789C01260F66
:101BD000371F213854EE35070CF4B7CEB901330F57
:101BE000880B990B0E94FB1920E030E040E05CE399
:101BF0000E94B01A2B013C01AECE8F929F92AF9201
:101C0000BF92CF92DF92EF92FF92CF93DF93CDB747
:101C1000DEB7A4970FB6F894DEBF0FBECDBF87E73F
:101C200095E00E945F082D8B3E8B4F8B588F698FFC
:101C30007A8F8B8F9C8F898C9A8CAB8CBC8C8BE62B
:101C400095E00E945F082D8F3E8F4F8F58A369A3A8
:101C50007AA38BA39CA3C9A0DAA0EBA0FCA00E944E
:101C60002503AB01BC0140934803509349036093A3
:101C70004A0370934B03CE0101960E94F10920E0C4
:101C800030E040EC50E4C501B4010E94AB1A1816D4
:101C90000CF0D3C085EC91E00E94190B8CE595E027
:101CA0000E94B3066FEF71E08BE194E00E940E0C8E
:101CB000CE0101960E94190B8BE59FE09093FB04E7
:101CC0008093FA041092FD041092FC041092FF0419
:101CD0001092FE0448EE53E060E070E08FED94E077
:101CE0000E94310381E090E0A0E0B0E08093EE0438
:101CF0009093EF04A093F004B093F1048093F20466
:101D00009093F304A093F404B093F5048FED94E062
:101D10000E94DC068091E2049091E304A091E40427
:101D2000B091E5048093E6049093E704A093E8045F
:101D3000B093E9040E9425036093EA047093EB04D6
:101D40008093EC049093ED048091E10420E030E076
:101D500041E654E4C701B6010E94531987FF8CC0C5
:101D60008FE492E00E94190B81E695E00E94B30691
:101D70006AE972E08BE194E00E940E0CCE010196BC
:101D80000E94190B8CE89FE09093D4048093D304B5
:101D90001092D6041092D5041092D8041092D70451
:101DA00048EE53E060E070E088EB94E00E9431037D
:101DB00081E090E0A0E0B0E08093C7049093C80475
:101DC000A093C904B093CA048093CB049093CC042D
:101DD000A093CD04B093CE0488EB94E00E94DC067F
:101DE0008091BB049091BC04A091BD04B091BE044D
:101DF0008093BF049093C004A093C104B093C20425
:101E00000E9425036093C3047093C4048093C504A7
:101E10009093C6048091BA04A4960FB6F894DEBFDE
:101E20000FBECDBFDF91CF91FF90EF90DF90CF90AD
:101E3000BF90AF909F908F9008956DE172E08BE11D
:101E400094E00E940E0CC501B4010E94410B64E2B3
:101E500072E08BE194E00E940E0C86E090E00E941C
:101E60002C0B62E372E08BE194E00E940E0CCE0139
:101E700001960E94190B6ACF6EEB72E08BE194E041
:101E80000E940E0CC701B6010E94410B64E272E091
:101E90008BE194E00E940E0C84E893E00E942C0BEE
:101EA00062E372E08BE194E00E940E0CCE01019699
:101EB0000E94190BB1CFCF93DF93CDB7DEB76497F4
:101EC0000FB6F894DEBF0FBECDBF8CE595E00E9443
:101ED000A8060E942503AB01BC0140934803509320
:101EE000490360934A0370934B03CE0101960E940D
:101EF000F1096FEC72E08BE194E00E940E0CCE01D0
:101F000001960E94190B64960FB6F894DEBF0FBEBF
:101F1000CDBFDF91CF910895CF93DF93CDB7DEB7DB
:101F200064970FB6F894DEBF0FBECDBF81E695E093
:101F30000E94A8060E942503AB01BC014093480300
:101F40005093490360934A0370934B03CE0101966B
:101F50000E94F1096CEE72E08BE194E00E940E0C9D
:101F6000CE0101960E94190B64960FB6F894DEBF5D
:101F70000FBECDBFDF91CF910895CF93DF93EC01DA
:101F80000E942D07CE01DF91CF910C94BE1B1F92B2
:101F90000F920FB60F9211242F933F934F935F939D
:101FA0006F937F938F939F93AF93BF93EF93FF9321
:101FB0008091B900887F803609F44AC0F0F58832F4
:101FC00009F4A7C018F5803109F49BC0B8F4882340
:101FD00009F4F9C0883009F494C0FF91EF91BF91E2
:101FE000AF919F918F917F916F915F914F913F91B1
:101FF0002F910F900FBE0F901F901895883109F404
:1020000088C0803251F78093E80314C0803409F40B
:102010009DC040F48033B9F38833F9F68093E80328
:1020200085ECB0C0803509F485C0883509F496C0C8
:10203000883499F60E948C0AD0CF883909F48CC074
:1020400038F5883729F050F4883611F0803729F6B2
:1020500083E08093E9031092E70357C0883809F4BE
:102060007BC0803919F0803809F0B7CF8091E70341
:10207000803208F071C0E091E70381E08E0F809319
:10208000E7038091BB00F0E0E953FC4F80833DC043
:10209000803B39F0E0F4803A09F479C0883A09F0DD
:1020A0009CCF84E08093E9031092C4031092C30391
:1020B000E091C103F091C20309958091C30381119E
:1020C0000FC081E08093C3031092A10309C0803C3C
:1020D00009F4A6CF883C09F4A3CF883B09F07DCF53
:1020E000E091C40381E08E0F8093C403F0E0EF55CC
:1020F000FC4F80818093BB009091C4038091C30307
:1021000029C080910E048093BB0085EC8093BC00B5
:1021100064CF90910D0480910C04981758F5E091CC
:102120000D0481E08E0F80930D04F0E0E451FC4F2C
:102130008081E9CFE0910D0481E08E0F80930D0442
:102140008091BB00F0E0E451FC4F808390910D043E
:1021500080910C049817C8F285E8D8CFE0910D045F
:1021600081E08E0F80930D048091BB00F0E0E4517C
:10217000FC4F80838091EB0381115CCF81E08093E1
:10218000EA0384EA8093BC001092E90326CF85EC31
:102190008093BC001092E9038091E703803230F411
:1021A000E091E703F0E0E953FC4F10826091E70310
:1021B00070E0E091C503F091C60387EC93E00995C8
:1021C0001092E7030ACF1092E80334CF1F920F92C8
:1021D0000FB60F9211242F933F938F939F93AF933A
:1021E000BF9380914E0390914F03A0915003B09103
:1021F000510330914D0323E0230F2D3758F50196FD
:10220000A11DB11D20934D0380934E0390934F0366
:10221000A0935003B09351038091520390915303C4
:10222000A0915403B09155030196A11DB11D809357
:10223000520390935303A0935403B0935503BF915B
:10224000AF919F918F913F912F910F900FBE0F9063
:102250001F90189526E8230F0296A11DB11DD2CF1D
:102260001F920F920FB60F9211242F933F934F930B
:102270005F936F937F938F939F93AF93BF93EF93EE
:10228000FF938BE194E00E94C703FF91EF91BF9110
:10229000AF919F918F917F916F915F914F913F91FE
:1022A0002F910F900FBE0F901F9018951F920F92B5
:1022B0000FB60F9211242F938F939F93EF93FF9359
:1022C000E0912B04F0912C048081E0913104F09195
:1022D000320482FD1BC09081809134048F5F8F7324
:1022E00020913504821741F0E0913404F0E0E55E7E
:1022F000FB4F958F80933404FF91EF919F918F91C5
:102300002F910F900FBE0F901F9018958081F4CFE2
:10231000CF92DF92EF92FF920F931F93CF93DF93B1
:10232000EFE0F4E01382128288EE93E0A0E0B0E0E8
:1023300084839583A683B78320E531E031832083AE
:10234000EBE1F4E01382128284839583A683B78342
:1023500082E691E09183808385EC90E09587848785
:1023600084EC90E09787868780EC90E0918B808B5F
:1023700081EC90E0938B828B82EC90E0958B848B48
:1023800086EC90E0978B868B118E128E138E148EB6
:10239000E8EAF5E01382128284E791E0918380837A
:1023A000118687E2848384E1828784E083871486B0
:1023B00060E083E00E949C02EBECF1E0E491AAE98A
:1023C000B5E0EC93E7EBF1E0E491F0E0EE0FFF1FF6
:1023D000E655FE4F8591949112969C938E9311979A
:1023E0001B961C921B971D961C921D971C961C9267
:1023F0001C971A961C921A9719961C921997189660
:102400001C92189717961C92179716961C9216975F
:1024100015961C92159714961C92149713961C925D
:102420001397E3E8F5E0168A158A1182B287A1872F
:1024300017821086108289E0838381E084838583FC
:102440008683E7E7F5E020E130E0318320832AE06E
:1024500030E033832283EBE6F5E041E150E0518345
:10246000408333832283E6E6F5E024E030E03183E5
:10247000208382831382E1E6F5E026E030E03183B9
:10248000208382831382ECE5F5E025E030E03183A0
:1024900020838283138282E090E090935B05809397
:1024A0005A05E4E5F5E0118210821382128215824A
:1024B0001482CDE2D5E000E811E019830883CE0153
:1024C0000E941A0180E19CE09C8F8B8F1E8E1D8ED6
:1024D00018A21F8E48EE53E060E070E0CE010E942B
:1024E0003103CC24CA94DC2C7601CF86D88AE98AC1
:1024F000FA8ACB8ADC8AED8AFE8AC6E0D5E01983A7
:102500000883CE010E941A018DEF9DE09C8F8B8F76
:102510001E8E1D8E18A21F8E40E65AEE60E070E0FF
:10252000CE010E943103CF86D88AE98AFA8ACB8A03
:10253000DC8AED8AFE8ACFEDD4E019830883CE01D0
:102540000E941A018BE59FE09C8F8B8F1E8E1D8E43
:1025500018A21F8E48EE53E060E070E0CE010E94AA
:102560003103C12CD12C7601C394CF86D88AE98A55
:10257000FA8ACB8ADC8AED8AFE8AC8EBD4E019831A
:102580000883CE010E941A018CE89FE09C8F8B8FFC
:102590001E8E1D8E18A21F8E48EE53E060E070E084
:1025A000CE010E943103CF86D88AE98AFA8ACB8A83
:1025B000DC8AED8AFE8ADF91CF911F910F91FF9007
:1025C000EF90DF90CF900895CF93DF93CDB7DEB734
:1025D000C956D1090FB6F894DEBF0FBECDBF7894AF
:1025E00084B5826084BD84B5816084BD85B5826018
:1025F00085BD85B5816085BD80916E0081608093C9
:102600006E00109281008091810082608093810031
:102610008091810081608093810080918000816041
:10262000809380008091B10084608093B10080919C
:10263000B00081608093B00080917A0084608093C4
:102640007A0080917A00826080937A0080917A008B
:10265000816080937A0080917A00806880937A000C
:102660001092C100E0912B04F0912C0482E0808351
:10267000E0912704F09128041082E0912904F09160
:102680002A048FEC808310923304E0912F04F091A0
:10269000300486E08083E0912D04F0912E04808147
:1026A00080618083E0912D04F0912E048081886008
:1026B0008083E0912D04F0912E04808180688083D6
:1026C000E0912D04F0912E0480818F7D80838FE036
:1026D00093E00E94190B8BE193E00E94190B80E2BA
:1026E000EEE0F1E0DE01119601900D928A95E1F79E
:1026F00064E070E0CE0101960E947407A3962FAFAC
:10270000A397A4963FAFA497A5964FAFA597A6967B
:102710005FAFA697A7966FAFA797A8967FAFA8972A
:10272000A9968FAFA997AA969FAFAA9788E1EEE2E4
:10273000F1E0DE01919601900D928A95E1F763E058
:1027400070E0CE0181960E9474076B962FAF6B9755
:102750006C963FAF6C976D964FAF6D976E965FAF6F
:102760006E976F966FAF6F97A0967FAFA097A19669
:102770008FAFA197A2969FAFA29788E0FE01EE5976
:10278000FF4FDE01AE5BBF4F01900D928A95E1F7DE
:1027900088E0FE01EE5BFF4FABE7B5E001900D92E4
:1027A0008A95E1F788E0FE01E65AFF4FDE01A65B5D
:1027B000BF4F01900D928A95E1F788E0FE01E65B3C
:1027C000FF4FAFE6B5E001900D928A95E1F71092C8
:1027D00098031092970310929A03109299030E9403
:1027E0005D0289E891E09093C2038093C1038AE877
:1027F00091E09093C6038093C5031092AD0580913C
:10280000B305823018F098E09093AD058093B00541
:1028100062E370E080E090E00E94F2026091B40513
:1028200088EA95E00E94560468EE73E080E090E04C
:102830000E94F20260E388EA95E00E9477090BE4C7
:1028400016E4C8010197F1F760E388EA95E00E9479
:102850007709C8010197F1F760E388EA95E00E94E3
:10286000770983E592E00197F1F760E288EA95E065
:102870000E9477096091AD05606240E088EA95E0CA
:102880000E94900984E08093AE0540E06CE088EA05
:1028900095E00E9490090E94D90982E08093AF05DB
:1028A00040E066E088EA95E00E94900940E062E03E
:1028B00088EA95E00E9490098BE39FE10197F1F788
:1028C00088E08093B40560E088EA95E00E945604B1
:1028D000E0918C05F0918D0513861586148612867D
:1028E0001186108617821682158214821382109226
:1028F0008A0510928B0511E0BE016E5A7F4F8091C0
:102900008C0590918D050E94F708882309F47DC0FD
:1029100067E0CE018E5A9F4F0E9441056A969FAD97
:102920006A978913E9CF80918A058F5F80938A0522
:1029300063968FAD6397883231F008F04CC08031D8
:1029400011F08232C9F680918B058F5F80938B05E1
:1029500080918305811128C080918C0590918D050F
:102960000E94FE05BE016E5A7F4F80918C059091AA
:102970008D050E94DF0540E064EB80918C0590910D
:102980008D050E94AB0580918C0590918D050E946C
:102990005805082F80918C0590918D050E94FE05A9
:1029A000011102C01093830563968FAD6397803148
:1029B000E9F0BE01675C7F4FCE018E5A9F4F0E94A7
:1029C0003606882331F08DAD8F33D9F058F48F312E
:1029D000D1F080E00EC08B3309F4B5CF823409F01A
:1029E0008BCFB1CF8F3521F08F3799F78CE001C0B5
:1029F0008BE090918605981708F07ECF809386052E
:102A00007BCF8AE0F6CF89E0F4CF61E08091660564
:102A10000E949C0261E0809161050E949C0261E03D
:102A200080915C050E949C028CE595E00E94A806BE
:102A300081E695E00E94A80686E695E00E94A80639
:102A400086E695E00E94B306109255051092540553
:102A5000109257051092560510925905109258057C
:102A60008DE295E00E943B0186E095E00E943B01EB
:102A70008FED94E00E943B0188EB94E00E943B01C3
:102A80008DE295E00E94DC0686E095E00E94DC067F
:102A900000E010E080915405909155059093590500
:102AA00080935805E0915805F0915905309709F445
:102AB00076C0E3A0F4A0828180FF14C0878590894E
:102AC000A189B289892B8A2B8B2B89F492818281EF
:102AD0008E7F828382818D7F828390FF03C0CF01AE
:102AE0000E94BD06F0925905E0925805DBCF0E9486
:102AF0002503E0915805F0915905238134814581E2
:102B00005681438454846584768487809084A1842C
:102B1000B284DC01CB0184199509A609B70988158F
:102B20009905AA05BB05F0F287859089A189B2892C
:102B3000181619061A061B065CF487859089A18968
:102B4000B2890197A109B1098787908BA18BB28BBC
:102B50008789908DA18DB28D0196A11DB11D878BA6
:102B6000908FA18FB28F87819085A185B285838454
:102B70009484A584B684880D991DAA1DBB1D8387E6
:102B80009487A587B6872783308741875287038C30
:102B9000F48DE02D309709F4A5CF0995A3CF011549
:102BA000110509F477CF0E94B303882309F472CF8B
:102BB0000E9400006FCF88EB94E00E942D078FEDFC
:102BC00094E00E942D0786E095E00E942D078DE29B
:102BD00095E00C942D07EF920F931F93CF93DF9303
:102BE000E80134E047FD34E1042E000C550B57FF9B
:102BF00003C0519541955109E32E022F242FAE01B8
:102C00000E940916CE01DF91CF911F910F91EF9095
:102C10000895A9E0B0E0EFE0F6E10C9446186A01EF
:102C2000F22EB02E102FFBE3AF2EA01608F41BE3FC
:102C30001F5F012F27E0AE014F5F5F4F0E946817B3
:102C4000BC018981982F9970913009F43FC09BE2B3
:102C5000E1FC04C09E2D9170E0FC3AC05E2D5071E5
:102C6000E82FE87083FF46C084E0911101C083E043
:102C7000EF2DE81B8F1508F0E0E0D6018E2F20E243
:102C8000552351F1992329F0D6019C93C601019651
:102C90006C0196012D5F3F4FE2FE24C08EE4D60109
:102CA0008C9391E411969C93119712968C93D90171
:102CB0008E2F90E281111BC0E20FF32FF11D1082C5
:102CC0008EEF9FEF2996ECE00C9462189DE2C6CF40
:102CD00090E2C4CF2D9381508111FCCFCE0ED11C38
:102CE000E0E0D0CF8EE6D6018C9391E6DBCF9D93CA
:102CF0008150E0CF482F447082FF3DC084E09111A5
:102D000001C083E08F1510F4EF2DE81BD6018E2F44
:102D100020E2552309F1992329F0D6019C93C6019D
:102D200001966C0196012D5F3F4FE2FE1BC089E4C6
:102D3000D6018C938EE411968C93119786E41296AB
:102D40008C93D9018E2F90E2882309F4B5CF9D93FF
:102D50008150FACF2D9381508111FCCFCE0ED11C22
:102D6000E0E0D9CF89E6D6018C938EE611968C935C
:102D7000119786E6E4CF9B0177FF02C030E020E0A8
:102D8000A1E0B0E0911102C0B0E0A0E0F9013196FD
:102D9000AE0FBF1F8B2C912CBB2009F461C05401D6
:102DA000EFEFAE1ABE0AAA0DBB1DFA161B0619F0EC
:102DB00014F04F2D4A1B511188C0E3FC59C0760115
:102DC000A42FB0E2A1114FC0C40ED11C992309F465
:102DD0005BC040E0D6011196F60190836D0155234A
:102DE00009F448C0012F060F9A81582F507184FFB3
:102DF00003C0913309F4015010160CF047C009309C
:102E000008F008E0EEE2FE2E5B01A01AB108850191
:102E10009194819491082F3F320729F4D601FC92B6
:102E2000F60131966F016217730794F102171307C9
:102E30007CF5DB01A21BB30BAA24A394B12CAC0E2E
:102E4000BD1EAA0DBB1D11968C9121503109D601D2
:102E5000119628153905F4F0F60180836D01DBCF5A
:102E6000B12CA12CA0CFF701B1937F01A150AACF23
:102E70009111B0CFD601942F50E302C05D939150D1
:102E80009111FCCFC40ED11C40E0ACCF01E0BACF11
:102E900080E3DBCF6217730731F4963388F4953300
:102EA00011F4552369F0F6018083FD01842F90E22F
:102EB000811108C0A40FB11D1C9290E080E002CFE8
:102EC00081E3F1CF91938150F3CF911183CF8ACFDA
:102ED000283008F027E03327DA01990F311D87FDEC
:102EE000916000966105710539F432602E5F3D9363
:102EF00030E32A95E1F708959F3F30F0803871055F
:102F0000610509F03C5F3C5F3D93913008F08068BB
:102F1000911DDF93CF931F930F93FF92EF92192F81
:102F2000987F9695E92F96959695E90FFF27EE5392
:102F3000FF4F99273327EE24FF24A701E7010590CF
:102F40000894079428F4360FE71EF81E491F511DF8
:102F5000660F771F881F991F0694A1F705900794A5
:102F600028F4E70EF81E491F561FC11D770F881F52
:102F7000991F661F0694A1F70590079428F4F80E90
:102F8000491F561FC71FD11D880F991F661F771F26
:102F90000694A1F70590079420F4490F561FC71F08
:102FA000D81F990F661F771F881F0694A9F7849171
:102FB0001095177041F0D695C79557954795F7949A
:102FC000E7941A95C1F7E8E6F0E06894159015913A
:102FD00035916591959105907FE27395E118F10A1D
:102FE000430B560BC90BD009C0F7E10CF11E431F70
:102FF000561FC91FD01D7EF4703311F48A95E6CF99
:10300000E894015030F0080F0AF40027021708F482
:10301000202F2395022F7A3328F079E37D932A9588
:10302000E9F710C07D932A9589F6069497956795E0
:10303000379517951794E118F10A430B560BC90BF6
:10304000D00998F023957E9173957A3308F070E358
:103050007C932013B8F77E9170617D9330F0839557
:1030600071E37D9370E32A95E1F71124EF90FF90CF
:103070000F911F91CF91DF91992787FD909508952A
:103080002F923F924F925F926F927F928F929F9278
:10309000AF92BF92CF92DF92EF92FF920F931F9366
:1030A000CF93DF93CDB7DEB7CA1BDB0B0FB6F89417
:1030B000DEBF0FBECDBF09942A88398848885F8457
:1030C0006E847D848C849B84AA84B984C884DF80C8
:1030D000EE80FD800C811B81AA81B981CE0FD11DAC
:1030E0000FB6F894DEBF0FBECDBFED01089597FB7C
:1030F000072E16F4009407D077FD09D00E94CC1853
:1031000007FC05D03EF4909581959F4F08957095EA
:1031100061957F4F0895A1E21A2EAA1BBB1BFD01EA
:103120000DC0AA1FBB1FEE1FFF1FA217B307E407A6
:10313000F50720F0A21BB30BE40BF50B661F771FFE
:10314000881F991F1A9469F76095709580959095DE
:103150009B01AC01BD01CF010895052E97FB1EF424
:1031600000940E94C41857FD07D00E948B1807FCDA
:1031700003D04EF40C94C418509540953095219589
:103180003F4F4F4F5F4F0895909580957095619593
:103190007F4F8F4F9F4F0895AA1BBB1B51E107C064
:1031A000AA1FBB1FA617B70710F0A61BB70B881FD7
:1031B000991F5A95A9F780959095BC01CD01089566
:1031C000EE0FFF1F0590F491E02D09945058BB2796
:1031D000AA270E94FE180C94711A0E94631A38F0F4
:1031E0000E946A1A20F039F49F3F19F426F40C94D7
:1031F000601A0EF4E095E7FB0C945A1AE92F0E942E
:10320000821A58F3BA17620773078407950720F0EC
:1032100079F4A6F50C94A41A0EF4E0950B2EBA2FAF
:10322000A02D0B01B90190010C01CA01A0011124CC
:10323000FF27591B99F0593F50F4503E68F11A1678
:10324000F040A22F232F342F4427585FF3CF469509
:1032500037952795A795F0405395C9F77EF41F162B
:10326000BA0B620B730B840BBAF09150A1F0FF0FF5
:10327000BB1F661F771F881FC2F70EC0BA0F621FE1
:10328000731F841F48F4879577956795B795F795D1
:103290009E3F08F0B0CF9395880F08F09927EE0F66
:1032A0009795879508950E94361A08F481E008954D
:1032B0000E946C190C94711A0E946A1A58F00E94AC
:1032C000631A40F029F45F3F29F00C945A1A511107
:1032D0000C94A51A0C94601A0E94821A68F3992320
:1032E000B1F3552391F3951B550BBB27AA27621702
:1032F0007307840738F09F5F5F4F220F331F441F0F
:10330000AA1FA9F335D00E2E3AF0E0E832D0915042
:103310005040E695001CCAF72BD0FE2F29D0660F2F
:10332000771F881FBB1F261737074807AB07B0E872
:1033300009F0BB0B802DBF01FF2793585F4F3AF078
:103340009E3F510578F00C945A1A0C94A51A5F3FD1
:10335000E4F3983ED4F3869577956795B795F795FE
:103360009F5FC9F7880F911D9695879597F90895E6
:10337000E1E0660F771F881FBB1F62177307840782
:10338000BA0720F0621B730B840BBA0BEE1F88F791
:10339000E09508950E948A1A88F09F5798F0B92FF7
:1033A0009927B751B0F0E1F0660F771F881F991F7A
:1033B0001AF0BA95C9F714C0B13091F00E94A41A5E
:1033C000B1E008950C94A41A672F782F8827B85F6E
:1033D00039F0B93FCCF3869577956795B395D9F7D2
:1033E0003EF490958095709561957F4F8F4F9F4FDC
:1033F0000895E89409C097FB3EF4909580957095E8
:1034000061957F4F8F4F9F4F9923A9F0F92F96E930
:10341000BB279395F695879577956795B795F111A5
:10342000F8CFFAF4BB0F11F460FF1BC06F5F7F4F42
:103430008F4F9F4F16C0882311F096E911C0772354
:1034400021F09EE8872F762F05C0662371F096E85D
:10345000862F70E060E02AF09A95660F771F881F2C
:10346000DAF7880F9695879597F90895990F0008D0
:10347000550FAA0BE0E8FEEF16161706E807F90746
:10348000C0F012161306E407F50798F0621B730BE1
:10349000840B950B39F40A2661F0232B242B252B62
:1034A00021F408950A2609F4A140A6958FEF811D05
:1034B000811D089597F99F6780E870E060E00895A6
:1034C0009FEF80EC089500240A941616170618063C
:1034D0000906089500240A94121613061406050618
:1034E0000895092E0394000C11F4882352F0BB0FA9
:1034F00040F4BF2B11F460FF04C06F5F7F4F8F4F0C
:103500009F4F089557FD9058440F551F59F05F3F46
:1035100071F04795880F97FB991F61F09F3F79F0F5
:1035200087950895121613061406551FF2CF469577
:10353000F1DF08C0161617061806991FF1CF8695F9
:103540007105610508940895E894BB2766277727DD
:10355000CB0197F908950E94361A08F48FEF089569
:103560000E94C31A0C94711A0E94631A38F00E94C8
:103570006A1A20F0952311F00C945A1A0C94601AD0
:1035800011240C94A51A0E94821A70F3959FC1F31E
:10359000950F50E0551F629FF001729FBB27F00D01
:1035A000B11D639FAA27F00DB11DAA1F649F662756
:1035B000B00DA11D661F829F2227B00DA11D621FA5
:1035C000739FB00DA11D621F839FA00D611D221F5F
:1035D000749F3327A00D611D231F849F600D211D43
:1035E000822F762F6A2F11249F5750409AF0F1F0C6
:1035F00088234AF0EE0FFF1FBB1F661F771F881F2F
:1036000091505040A9F79E3F510580F00C945A1AF2
:103610000C94A51A5F3FE4F3983ED4F38695779512
:103620006795B795F795E7959F5FC1F7FE2B880FD4
:10363000911D9695879597F908950E94361A880BE3
:10364000990B08950F931F93CF93DF9382309105C9
:1036500010F482E090E0E091B705F091B80530E019
:1036600020E0B0E0A0E0309799F42115310509F48D
:103670004AC0281B390B24303105D8F58A819B813B
:103680006115710589F1FB0193838283FE0111C0ED
:10369000408151810281138148175907E0F0481792
:1036A000590799F4109761F012960C93129713969C
:1036B0001C933296CF01DF91CF911F910F91089506
:1036C0000093B7051093B805F4CF2115310551F0DB
:1036D0004217530738F0A901DB019A01BD01DF0150
:1036E000F801C1CFEF01F9CF9093B8058093B705EA
:1036F000CDCFFE01E20FF31F819391932250310948
:1037000039832883D7CF2091B5053091B605232B77
:1037100041F420910201309103013093B6052093CA
:10372000B50520910001309101012115310541F4C9
:103730002DB73EB74091040150910501241B350B74
:10374000E091B505F091B605E217F307A0F42E1B42
:103750003F0B2817390778F0AC014E5F5F4F2417F5
:10376000350748F04E0F5F1F5093B6054093B505DF
:10377000819391939FCFF0E0E0E09CCFCF93DF93D4
:103780000097E9F0FC01329713821282A091B705ED
:10379000B091B805ED0130E020E01097A1F4208150
:1037A0003181820F931F2091B5053091B6052817FE
:1037B000390709F061C0F093B605E093B505DF91D4
:1037C000CF910895EA01CE17DF07E8F54A815B81C2
:1037D0009E0141155105B1F7E901FB83EA83499147
:1037E0005991C40FD51FEC17FD0761F480819181B9
:1037F0000296840F951FE9019983888382819381C2
:103800009B838A83F0E0E0E012968D919C91139760
:103810000097B9F52D913C911197CD010296820F39
:10382000931F2091B5053091B6052817390739F651
:10383000309751F51092B8051092B705B093B605C0
:10384000A093B505BCCFD383C28340815181840F3F
:10385000951FC817D90761F44E5F5F4F8881998122
:10386000480F591F518340838A819B8193838283B0
:103870002115310509F0B0CFF093B805E093B705F5
:103880009ECFFD01DC01C0CF13821282D7CFAEE004
:10389000B0E0EDE4FCE10C944E180D891E898F898F
:1038A000988D26E02C831A83098397FF02C080E05D
:1038B00090E801979E838D83AE01455E5F4F698DD1
:1038C0007A8DCE0101960E94771C4D815E8157FD55
:1038D0000AC02F813885421753070CF49A01020F52
:1038E000131FF80110822E96E4E00C946A18ABE0E6
:1038F000B0E0EDE7FCE10C9440187C013B018A014B
:10390000FC0117821682838181FFC8C1CE01019616
:103910005C01F7019381F30193FD859193FF819100
:103920003F01882309F453C1853239F493FD859111
:1039300093FF81913F01853229F4B70190E00E9405
:10394000671EE7CF912C212C312CFFE1F31538F0C5
:103950008B3211F190F4803209F1833229F137FC76
:103960003CC020ED280F2A3050F536FE20C08AE0FA
:10397000989E200D1124922E06C08D3291F0803336
:1039800071F7689430F8F30193FD859193FF81916D
:103990003F018111DACF21C0689431F8689432F880
:1039A000F2CF689433F8EFCF689434F8ECCFEAE0C4
:1039B0002E9E200D1124222E689435F8E4CF8E32ED
:1039C00029F436FC04C1689436F8DDCF8C3619F43E
:1039D000689437F8D8CF8836B1F2982F9F7D9554E8
:1039E0009330E0F08336A1F18337C1F1833509F0DC
:1039F00063C02801F2E04F0E511CF801C080D18055
:103A0000692D70E036FC02C06FEF7FEFC6010E94A7
:103A1000511E4C01689437F882010AC00C5F1F4F99
:103A2000FFE3F98388248394912C6501E89437F8A7
:103A300033FE2DC0522C8114910471F5552009F4E8
:103A400068CFB70180E290E00E94671E5A94F6CFDB
:103A5000F801808189830E5F1F4FE4CF2801F2E0D7
:103A60004F0E511CF801C080D180692D70E036FCEA
:103A700002C06FEF7FEFC6010E945C1E4C01820105
:103A8000D5CFB70180E290E00E94671E2A942814E7
:103A9000190409F0B0F7CECFF60137FC859137FE57
:103AA00081916F01B70190E00E94671E51105A94F6
:103AB000F1E08F1A9108BFCF843619F0893609F0EA
:103AC00077C0F80137FE6BC060817181828193817C
:103AD0000C5F1F4FF32DFF763F2E97FF09C0909587
:103AE0008095709561957F4F8F4F9F4F689437F801
:103AF0002AE030E0A5010E94971EC82ECA188C2C1F
:103B0000432C36FE0CC0E89440F8C91440F434FE4F
:103B100005C032FC03C0F32DFE7E4F2E892C44FEDF
:103B200095C0FE01EC0DF11D8081803309F087C046
:103B3000242D297E422E842D8870582E43FC95C05A
:103B400040FE8FC09C2C821418F42C0C922C9818D8
:103B500044FE91C0B70180E390E00E94671E42FEE0
:103B600009C088E790E041FE02C088E590E0B70117
:103B70000E94671EC91408F48AC0CA94D12C9FEF12
:103B8000C91AD90ACA0CDB1CF60182916F01B70170
:103B900090E00E94671EAC14BD04B1F74FCF608166
:103BA0007181072E000C880B990B0E5F1F4F92CF6F
:103BB000D32CE894D4F82AE030E0853739F1232D6E
:103BC000297FD22E8F3601F148F48835A9F0F7010C
:103BD000868197812B96E2E10C945C18803749F03E
:103BE0008837A9F7D4FE02C06894D2F820E130E00B
:103BF0000DC06894D4F8F6CF34FE03C0822F8660DF
:103C0000D82E20E132E002C028E030E0F801D7FEF3
:103C10000FC060817181828193810C5F1F4FA5016C
:103C20000E94971EC82ECA183D2CE89437F867CF1B
:103C30006081718190E080E00E5F1F4FF0CF42FC09
:103C400002C0839478CF8394839475CF842D867833
:103C500009F471CFF6CFB70180E290E00E94671EB1
:103C600083948214C0F3512C73CF522C58188214B1
:103C700008F46ECFF8CF842D867809F47BCF8BE2E1
:103C800041FE80E247FC8DE2B70190E071CFB701C1
:103C900080E390E00E94671E9A946CCF8FEF9FEFB5
:103CA00099CFFC010590615070400110D8F78095C4
:103CB00090958E0F9F1F0895FC01615070400190F8
:103CC0000110D8F7809590958E0F9F1F08950F9340
:103CD0001F93CF93DF93182F092FEB018B8181FD69
:103CE00009C01FEF0FEF812F902FDF91CF911F9110
:103CF0000F91089582FF14C02E813F818C819D8198
:103D0000281739073CF4E881F981CF01019699839E
:103D1000888310838E819F8101969F838E83E3CF5A
:103D2000E885F985812F0995892BA1F3DACFFA016E
:103D3000AA27283051F1203181F1E8946F936E7FEA
:103D40006E5F7F4F8F4F9F4FAF4FB1E03ED0B4E0DB
:103D50003CD0670F781F891F9A1FA11D680F791F1C
:103D60008A1F911DA11D6A0F711D811D911DA11D2D
:103D700020D009F468943F912AE0269F112430193D
:103D8000305D3193DEF6CF010895462F4770405DD8
:103D90004193B3E00FD0C9F7F6CF462F4F70405D87
:103DA0004A3318F0495D31FD4052419302D0A9F7E2
:103DB000EACFB4E0A6959795879577956795BA95DC
:103DC000C9F700976105710508959B01AC010A2EA2
:103DD00006945795479537952795BA95C9F7620F79
:103DE000731F841F951FA01D089510E0CFEED0E033
:103DF00004C0FE010E94E0182196C03FD107C9F718
:043E0000F894FFCF64
:103E04000000B90580000000400014005400AE47D3
:103E1400C13FEC5180407B14EE3F0000E040B81EEF
:103E24000540CDCC0C4152B80E40F6282041CDCCF3
:103E34004C3E00005C439A99193F00000D44000079
:103E44000000000088425E00BC0077010000000012
:103E5400E201B5013E058B01AE019B018C0100001E
:103E64000000E903490376033604A7038503990395
:103E740000000000EB0949033E053D050000000079
:103E84002D07BD0F2564642025643A25643A256412
:103E9400000D0A006E616E00696E66006F76660042
:103EA4005048203A257320202000434E443A25737D
:103EB4002000544D503A2573002573202D2025737E
:103EC4006D206661002D2D2D2D2D2D2D2D2D50486D
:103ED400204C4556454C204F564552205448524597
:103EE40053484F4C443A204E45454420544F2053A8
:103EF4005441525420414349442050554D50002DC3
:103F04002D2D2D2D2D2D2D2D414349442050554D22
:103F1400502053544152545320617420005048207F
:103F2400495320005448524553484F4C4420495368
:103F340020004E4F204E45454420544F20414354C9
:103F440049564154452050554D5020415420002D90
:103F54002D2D2D2D2D2D2D2D434F4E44554354499C
:103F640056495459204C4556454C20554E444552CB
:103F7400205448524553484F4C443A204E454544FA
:103F840020544F2053544152542046455254494CD6
:103F9400495A45522050554D50002D2D2D2D2D2D73
:103FA4002D2D2D46455254494C495A4552205055C1
:103FB4004D50205354415254532061742000434FB8
:103FC4004E44554354495649545920495320002DD1
:103FD4002D2D2D2D2D2D2D2D414349442050554D52
:103FE400502053544F505320617420002D2D2D2DFB
:103FF4002D2D2D2D2D46455254494C495A455220BC
:1040040050554D502053544F505320617420005349
:1040140074617274696E672E2E2E002A2A2A2A2A47
:104024002A2A2A2A2020204F72746F204944524F92
:10403400504F4E49434F20312E302020202A2A2A27
:084044002A2A2A2A2A2A000078
:00000001FF
